:020000040800F2
:10000000583A00200DC50108D9B60108DBB6010831
:10001000DDB60108DFB60108E1B601080000000006
:10002000000000000000000000000000E3B601082E
:10003000E5B6010800000000E7B60108E9B60108CE
:10004000C1C50108C5C50108C9C50108F1B6010847
:10005000CDC50108D1C50108D5C50108F9B601080B
:1000600003B70108D9C50108DDC50108E1C50108CC
:100070000DB70108E5C50108E9C50108EDC501088E
:10008000F1C50108F5C50108F9C50108FDC501085C
:1000900001C6010805C6010809C601080DC6010808
:1000A00011C6010815C6010819C601081DC60108B8
:1000B00021C6010825C6010829C601082DC6010868
:1000C00031C6010817B7010835C6010839C601084D
:1000D00021B701082BB701083DC6010841C6010838
:1000E00035B7010845C6010849C601084DC60108D3
:1000F00041B7010849B7010851B7010851C60108C5
:1001000055C6010859C601085DC6010861C6010847
:1001100065C6010869C601086DC6010871C60108F7
:1001200075C6010879C6010859B701087DC60108DE
:1001300081C6010885C6010889C6010800000000C3
:10014000D8CD8C3E623F1F3E9DB4643E7F3CF23C66
:10015000CF4441BE176A8A3EA655A1BC89B22BBDC9
:10016000AEF361BE5B01DEBEAA59AE3D37FC9B3CDF
:100170005C426F3EBF0180BE39D90A3E99EDC9BECF
:10018000F7120DBEEEA11ABEAE0896BE6E1484BC68
:100190001C4854BEBD6ADBBE1E9A2C3E68FFA63EBC
:1001A0000D17C4BD1AC947BE2A08903E315A2FBE4A
:1001B00039F48ABD2898243E477DF43D31C116BEEE
:1001C000323C2E3ED9B3A83BFFD973BE5B155FBD51
:1001D000C923593E7287CC3E8069233E7A18A6BE59
:1001E0008E30073E876432BD7BEC1A3E42AD48BE7E
:1001F00015D3C83DD4865A3E19CB5DBDA7650B3ECD
:10020000761AB53DDD29573E1DF68E3EA3B9CF3D8A
:10021000FF61943E4C5F543EB9760DBDFFE4E33E72
:100220005687DDBD50AB043EE024313ED66A3CBE6D
:1002300065771FBE833878BEF473B53DACA2CC3E63
:100240002826A7BEEF240CBE26D7313DBE16ACBD76
:100250000C2D013E6621E9BE18FCEB3EC7E57F3D53
:100260000F4A0F3E2D919A3D3BB046BE7C1D1ABEF3
:10027000AC51E73BB7FDCE3E96E40FBE413F3A3D61
:10028000B6084F3EC50C13BE87059DBE4FC0B03D9E
:100290005ADEB83E03CAA1BDDBD3E4BD902A843E3A
:1002A00083EE0A3F11D7A73E936006BE83CC5A3E29
:1002B0002EDF293E3FFAA93D00339CBDD5A2FD3D6E
:1002C000B5E7343E1F77773D681DCFBD0D7817BF6A
:1002D000FFE2A43E3EA1443D073C233E969AF93AF4
:1002E000A3E38A3EE480E43E84F5A5BE962095BE55
:1002F000B1B6B63D2C2983BE934BE4BDB6686B3EC8
:10030000A023573E4D048CBE447FD03DFB88C0BE29
:1003100097DBB0BEF635523E812CB1BDAB7EA2BE9E
:10032000DEC997BE9C2EB0BE5FA883BE3A82A03EB7
:10033000C3F8053E2263FE3D3288CE3EBD3710BE77
:10034000A8BEECBDCE50693CBCAF96BE49E7873E27
:10035000DF0A37BEC5DCB2BDF0B42D3EBBECBF3EFC
:1003600034C6923E9649A03DE8E3AD3E498B5D3DE3
:10037000078AA43ECA5156BDCE13133E5FC4573EF2
:10038000B656713B6F029EBD083F09BD1AD1BC3DF8
:10039000EE47963D5C87323D6EF3EFBC10FD29BC05
:1003A000C447BBBD9A89F2BCFDA6DC3D8A7854BB2C
:1003B000D2F620BE44BEEDBDE24B11BD451790BD47
:1003C000105132BE9B06573E8E14993E1A7F2F3D28
:1003D0008A1C85BE02AFFEBE84ADA7BE31CEA53D50
:1003E0003C4626BE18502EBE76047FBC6BF8033FF9
:1003F000C4AAC4BEBF27BABE082389BD928811BE55
:10040000C1635BBE6F8757BD3D7A913E1D2E853C13
:1004100084A42EBEF1ED09BEC72538BE3F5B183C53
:100420002A7AA4BE782E14BDA7F596BCAE818B3E69
:10043000662EBDBC7FFFE1BECFCD8B3D0B92AFBD25
:10044000C1E88C3DB954613CB8A5AABD096A33BE68
:10045000A42ADF3DDE81A9BE6F7BD63D413C2D3D08
:10046000BE54973CEB9C87BE2E41993E791AB13E13
:100470001CF2CFBE67111BBF2DDD933E50EA89BE33
:100480000A4C79BEBB85F13D26331DBED90C053E15
:1004900002E8FB3DCB8F41BDDD6E8CBD9338EBBEDA
:1004A000818435BE3BB27BBE39B4EFBD76A8A4BE15
:1004B0008C859DBDCA776BBEEF5782BEB93CB1BD7E
:1004C00007AE4C3E331BA9BD64692B3E31C9063CC7
:1004D00048AB0DBECF03DF3D1B30153D1620EEBEF1
:1004E0001BD2F6BED437F7B98B139FBCDE4CA8BE27
:1004F000FBF581BDC0811D3D73BC0D3E5425243EDE
:1005000083E229BE046686BD59F8A7BD342949BBDC
:1005100089F14C3ED1C9E83DE3599A3E6796A0BEA9
:100520001D890DBE30B922BD3C43C63D2499AEBEE7
:10053000A45E153D92D8C4BE9FA99BBE0DD338BE04
:10054000EDF01CBC9B82483C7828ED3C65DE12BE79
:10055000A0B7F43D114B0ABEC094993EDB05903E16
:10056000BA95123F33C584BD412B8D3E81822E3F0B
:10057000936342BEB949503E9162203D524DB73E11
:10058000590937BC58117E3DB786713EFAFB0D3EC6
:10059000D7559F3D3BE80EBEF5DCFB3EFB303D3DB5
:1005A000AE0AC53D64D16DBC8F08103E6B215A3F29
:1005B000B1182D3E89B9B6BDD544C63E2AC1713E9B
:1005C000968F7B3E8144C23E2DEF2CBE5E3451BEE1
:1005D000146A32BE111B30BE3A3298BC3625AF3E8B
:1005E00031A2173E6E48B63D0E84CABB41852B3FF3
:1005F000C2B0A03CED069C3ECBD71D3E100FBEBD49
:100600003766CF3EF5C53D3E52BE76BBA1292EBE14
:1006100078C7953E0E587F3EDA95AE3E8EE0A63DF9
:100620005479173FCCEDF2BD6B4ABF3DB620533F26
:10063000EA41D43EECD7983E60F63C3E1E8AB83E76
:1006400077B705BC1249773E6FA3613EA23C793D66
:1006500050FA0F3EBEE43DBEF78E1C3F6755B13DDC
:10066000DE9B0A3FA5B8163E06D567BE0A3F813E0F
:100670004B50033F77D781BD74A50C3E6001E53D2B
:10068000E1D2183DC14E833E02DF05BE74E0F03A70
:10069000B5B54ABEBEE976BEBB93013E2C36413E9F
:1006A0006823ECBC8BFD65BD7E0091BD9A0B223F9B
:1006B000D001473E9074B23C3C81403E0C5011BE8C
:1006C000769489BB3F25ED3ED422BEBEB432A9BE8E
:1006D0001BBCEC3CEE8532BE1D6D72BD1A293CBEC2
:1006E000D6261FBFC024113EF658193E6DFCA8BE89
:1006F0008A4456BE378BA3BE353BF6BBFE8C53BE39
:100700005B9C09BD350C37BD8081013EC976473DF4
:10071000C88AD5BD580CC93D8148343D84F2F2BE2B
:10072000200735BF8F9296BD5A9C2E3E034022BEB5
:1007300097DAF1BD7E5EF43D99743FBE8F6C55BD76
:1007400047DF27BC98662F3E6D528FBE1D0BEE3CD7
:10075000A006393DB2BA31BEF34301BE3817D1BE4F
:100760008C55ECBE71B737BE54151D3E30DE06BF4A
:100770006F9193BE044A813DF99369BE391B9A3D3E
:10078000E71A0EBE4926823EABED92BD802D013D9B
:1007900012AC5A3E8EC523BE9F79803ECEB3A53E95
:1007A000E692EA3E2819B63D80498ABEF724B93D53
:1007B0004CC3863E5CEBDD3E0E23D33E855028BE07
:1007C000EDD977BE6881933D9ACD9D3E95DB25BEE0
:1007D00041D1A4BE39ADFBBDE255BC3E0DC51F3FA6
:1007E000E041893E4E979A3E02B12F3E805F26BE81
:1007F000658EDB3EF0812E3DA175623C8EA16C3E84
:10080000260C15BEFCB5EA3DB9766BBDC760033E4C
:100810003F052FBDF287D03E9A03353EE5DDFA3E17
:100820003870313FE74AE93E0DDCA6BDC2E160BD4C
:1008300098891FBDB750943E571B413EB090043E6F
:10084000296B533E47CDD73E8B31653E2F5C72BC42
:10085000DA820DBE3250963D29C1C63EADBA4F3D3B
:10086000B7158A3EF7FD82BC4CA5BC3CEF633C3F0C
:10087000DCFE8B3E5B11F13E52B08F3D1426193EDB
:10088000D2D017BEEF1E1E3E2D2F0BBED396743E48
:100890001E8C2F3E99BC2B3EDD4F8B3E61945F3EFC
:1008A000C0F79A3EC05B753E78EE2CBE87EB233FC7
:1008B000BEDC813EA352A23EA1F3653EAD25F0BD54
:1008C000CE7A84BE9230333E3B6990BD9D251FBEDB
:1008D0003AC82D3E695BE3BDF33DA83E7EB10C3FB7
:1008E0001EB809BE76E5933E57003BBD1B55593FE8
:1008F0003F2DE13EBE01963EF7BAAF3EC7CE14BED5
:100900000E134BBEF643323D743B47BD327A4FBEA9
:10091000F9AC383D287F24BE2AB7CA3EA20D9D3EC1
:10092000521FDF3E67E5DBBD712809BD636E113ED6
:10093000B454013E885BF4BC78E0383EA3CE513E0F
:1009400037D0F7BC039E0D3F9D7C723E34DE57BE10
:10095000A7B2B7BCE603A43DC017543E0C28303FF5
:1009600026E5653E0E51623CAA938ABEA278F53E0A
:10097000EFDB59BE913A07BDD1ECCF3E823B04BCC0
:100980009801AB3E76E9E03DF12EA73D6AB2F83B17
:100990000AD09CBD8A31613E9571BF3ECA7A103F34
:1009A0003660F83E3DC1E93DE9B8903D847E9C3E0D
:1009B000B10091BD2DAF903E1882D93EB654273E6E
:1009C000A848A3BC9600F93D70A29DBDB6D79EBDB8
:1009D00058D5223E2C4685BDF5B7B4BDA17F78BD64
:1009E000CFE38EBDB0195C3D11B01ABF682662BF5F
:1009F000CB0068BD774114BFABE864BEBA1F11BF1E
:100A0000C55F1B3C00818C3D44841CBF4DB818BFA2
:100A1000867F0D3DC757A9BE206639BEAE1CD6BE27
:100A2000460971BD4B81B93D15CE95BEE22924BF63
:100A30001FC2A03CA312C3BE554780BE0C3AC1BE24
:100A400077FB613D95BFC03B65EF54BE9220FBBE76
:100A5000882E893DF8C9D1BEC914AFBDCB391FBF9F
:100A60008DBE143EA9A7B3BD0ABD3BBE003A13BF5D
:100A7000EE86253E67C735BEF25E13BEE99FF3BE24
:100A80004BAC65BD998DD7BD693FFABE8C3F06BFA3
:100A9000BD497C3D17F1DFBE872A41BD18FB0FBF62
:100AA0009FCBADBD51D110BDEED097BE22B4E9BEF3
:100AB000D372103D63E3C8BE2FD3C4BDA476DABEA3
:100AC000D9C9403ECD5DB6BBA78D55BE8384F3BE6C
:100AD00077808A3D09FD01BF87E73DBDEF5808BF1C
:100AE000A8F60F3E7112BABD36D853BEF72D94BE8C
:100AF0001941CB3D7A3C3DBF44F3D93C48E94DBF59
:100B00009222CDBD5D90BD3CBA1983BEC9CFC3BE94
:100B100069175DBB87D01DBF65EAE5BDF2592EBFE1
:100B2000DE63003EC86605BE9AC10EBFC752EEBE68
:100B3000373D883DC11DD2BEED8029BDABE33ABF34
:100B4000EFA313BE513584BD0571A7BEB2D2E4BE7A
:100B500020D6233E2817C2BEBF28C6BD2C871BBF88
:100B6000ED6891BD02F1103E9889B8BE3F0002BF0A
:100B70007D895C3D6C5AABBEC2FC6DBDBEAB0DBF8A
:100B8000FFB73EBD532BD93DFC80E7BEB69BFEBEF2
:100B90007071DA3D92AFBCBE33EB34BE3B8145BFD2
:100BA00054CEC9BDBB1D1ABA3D98B7BECA5032BF9C
:100BB0002AEBDC3A3ED0A9BE9E31F3BC6C9BCCBE86
:100BC000991BD43A63316FBD611001BF7F5916BFC5
:100BD000397E363C036F14BF5C5AE6BDEA08C7BED7
:100BE0008FC4CF3D006602BE7A8754BE482207BF3D
:100BF000DF0B0E3EC82913BFAE95853D9D6514BF22
:100C0000BDD018BD719E59BC2E0A89BE884761BEF1
:100C10003ACA013E460906BF8B51CC3D94F9F6BE57
:100C200098EB48BDAEAADE3D30B0D7BE49F498BEC1
:100C3000056CA93D060F93BE4E2389BD35AE0EBF90
:100C400075EFC1BDC103F1BC7A8A52BE5128A6BE60
:100C50002739FF3D18E444BFCEE7EBBDF25404BF93
:100C60003250843D49553E3D7E8812BE3A5A0FBFF0
:100C70002EF4123E39DA28BF2BD209BD58B333BF48
:100C8000B101FDBD434D153EA5FFAABEB8C18BBE47
:100C9000D811053CEDFD5BBFF11D70BD22FD29BFE4
:100CA0007B8897BD07169B3CF0E89FBE7E3024BF33
:100CB0006A38C13DD43103BFA0FD97BD62B7E2BE23
:100CC0004C43143D21BDA9BC66DABFBEE40026BF7B
:100CD000C3EF90BD2845B7BE19FE69BDBF1B42BE1C
:100CE00028B6BD3DD6AA0CBE2512B1BE397B0BBFBE
:100CF000E2320B3ED1CE88BEA6B274BEDF61B5BE75
:100D0000B7FAE4BD488CC13D9C498ABEE8DD03BF0B
:100D1000EFB5EB3DF5990EBF96C39CB9B70EC7BEB4
:100D2000F0BB4A3D4D06343C07BA49BE6D7BAABEB6
:100D3000D8C5A33D47E0AFBE279A0F3DB1B678BEF8
:100D4000DDADAFBD72BCB03D5184FDBE3950FBBEC0
:100D500073B7163E18D838BECE148ABD6FDDDDBE1F
:100D6000A64A183D494E25BE448E75BEE115EEBE1D
:100D70001F299BBD5989EBBE0ACFAC3D1D41D5BE95
:100D80005CA4D43CECA439BDE062DEBD9A2CCDBE9F
:100D9000ED11213E3CDAE0BE4E9CF3BDDB2F7FBE61
:100DA000D925AEBDDFEEE43DDA9224BEF0A7F2BE57
:100DB00008701BBD7B6A0BBFA7A5D4BD5D5922BFC0
:100DC000E663083D4202003E5683C7BEE3989DBEDF
:100DD0005613FC3DF4ED18BFBC5D243D38681FBFC1
:100DE000375FA5BDFBF16B3DC8D6E8BEA482F1BE5E
:100DF0008725A13D070500BF89EE53BD49EE16BF0B
:100E0000E76993BD8C9693BD74C709BFDBB9F4BE87
:100E10003A35C9BC23F3EDBEE05EC6BDD010BCBE02
:100E20005C1C073EAE7383BC9BDECFBE6CA321BFB0
:100E3000C552D23DC63BA0BE821B91BE8085D1BEAD
:100E40002D0C643D5117863D660F12BF1605D0BEAE
:100E5000C142833D9B3305BFFF23DA39A6941EBFF1
:100E6000D531303D3375A13D8BF50ABFD6360EBF67
:100E700084DCECBC11E6BFBE0D7868BED10EC0BEEE
:100E8000B2FC053D54EA183ED2A6BEBE0D2C2BBFC7
:100E900015B9CC3B4401D2BE1DCE8BBDDB6FADBEC0
:100EA0003C7A353EA282D3BD06D363BE9764D5BEDD
:100EB00075CB163EC75AB9BE5B90ECBC7C15EEBE36
:100EC000630D903B835B12BD1D95C3BD147EC2BEF6
:100ED000D48F06BD98FDFDBEF19665BD087CAABE07
:100EE000A64E983B26B3963DDB32C4BE1574B1BE08
:100EF0009BBFAD3D33C4B0BE5704773D573A12BFD8
:100F00003106743D4C3764BDEE136CBE083FB5BE70
:100F10009997BF3DC221E6BE70E0D2BA0C76F2BE10
:100F20000517483ED6D53C3CDC64083D902ADEBE21
:100F30003043AC3C21E807BFC0BC29BEC5520EBF40
:100F4000CDC9CFBDD278F13C4EFE0ABD9421BFBEC3
:100F5000D04F2A3E034314BFE88D75BE5D4744BFA2
:100F6000C5AB58BE632EACBDBE4709BF46C424BF47
:100F70001231193E13F1B0BE3BEDDBBD9DF7A0BEB3
:100F8000EC9DF33B707F113DAA8AC2BEEDEC2EBFF3
:100F900085FE75BD3D84A0BE9C8651BE755EDABEE1
:100FA00053D2BDBD30BD5B3DFAD516BF83CCFCBE70
:100FB000B19BE8BC3BF000BF7480D2BDB708EABE6D
:100FC000A77298BD4263E93D8B01D9BE3D201EBF8B
:100FD0003923B43DB94AC1BE263DF1BD14D1C3BECB
:100FE000F4AF50BD83641CBDC9597EBECE59CFBE7F
:100FF0009E1A273E3B9A95BEA372B3BD8211B8BE1E
:10100000D2528D3DC824ADBDB42EC0BE8C7E0DBF66
:1010100090AFA2BC036533BE3F3C95B9E5F3CDBEAE
:10102000B68D84BDF3D31EBDEFDC4FBEBA2639BEEC
:10103000853BDF3D2DF2A9BE0A2DF1BD8FD78EBEB7
:101040007E78A8BDF24CC6BDE7406BBEC4DD87BE4E
:10105000B896513B555F99BE5E8DC3BDCEA087BE8D
:10106000ADA6093E8D6A4DBCCB696FBE06B9DEBE2A
:10107000DB8CF83D45993BBFC63F863D6C7C3CBF51
:1010800062C4203D1440A83D8CCAE6BEF086F2BE84
:10109000EBD2B83D2A461BBF50B9A9BDBE2529BF1A
:1010A000FF89CBBD190B153E468617BF7199AABEA5
:1010B000ED7E55BDFC23F4BE3AC65BBEF148F4BEDE
:1010C000C0BEE73D8439263E1624ADBECE78BDBEF7
:1010D0007767103E0EC6A2BE95E697BE4F7406BF58
:1010E00024FCFC3DA785183E38E59EBEB2881FBF94
:1010F000A61C253D578B22BF81C165BECEDE34BF05
:10110000657B363D278E92BCCC69F8BE0D150FBFAE
:101110000E8CD23D6B6EB8BED85634BE6A9C0FBFE3
:10112000C6B29E3C96430A3C44F09DBEB13709BF0F
:10113000C4431C3DD235B4BE89E09CBB0DFBCBBE85
:10114000B01B473E12CCDEBCFCCC04BFB37BEABE76
:1011500084D2533D7A16DEBED6D863BD50E7F2BEC8
:101160007CDA453EB71AC43C8611A5BD24E5B6BE5F
:10117000B00A2F3D900106BF5466D0BDAFF6CBBE7E
:101180000790903D9ED3CB3D67E867BD88B0D1BE48
:10119000944D113E1508F0BE9C07233C4ED4B0BEC2
:1011A0003032533EDADB25BD0E0CABBEF4B918BFAE
:1011B000443614BDA8359ABEA6B288BD3E14FFBE03
:1011C0006B4EA8BDEB0B0A3D0D4447BE6FFD95BEAF
:1011D000A3E2063D26521CBF18A2863C4EAA10BFB1
:1011E000691D503E7CA56C3D363DAD3DB6CB95BEF0
:1011F0007D3905BBFC9F0CBFA6E3BC3D053AD2BEC2
:10120000EB3C8ABDADD5D2BD3CADC5BE82F6A6BE17
:10121000E6A17E3D6CC65CBF3F1060BEB6C40FBF8A
:101220007EF5D3BD1CE5CF3DC45998BE3FC03EBF3F
:101230000AB9BB3D44ED5ABE8587B1BD563980BE63
:10124000C4F7E8BDA7A5313E8642D7BEF3DEB8BEDF
:101250008AF8973D8056A1BE08A6E238FE8FF4BDFD
:10126000DEB8BCBC8522763D221988BE914A03BFF8
:10127000DEF099BDFBDE85BE1CE3C8BD925D7DBD81
:1012800041A0CF3D70134D3E2B38B3BE9056DDBE0E
:10129000E144253E5E2A60BE13C79CBC257EB9BED4
:1012A000E97E03BD85823A3D14D0BD3CFCEDB5BE60
:1012B000480AE03DE18B16BE96CD933C3F9E5EBE54
:1012C00063D2BBBD2229D63CAF80C9BD59DB29BE44
:1012D000EFFC323EA12302BEF013EE3D0537C6BE41
:1012E0003343A7BD670E793C0A477BBDDCDE1ABEDF
:1012F00064F0563E22F66EBE2D6B74BCF38BC8BEF6
:101300006C68153EEFD8433E2BB120BD4E02F2BDB6
:10131000B937293DE5C2A5BE61C6A6BDF1583DBE9F
:101320009B7CBABCC40A173E6BED93BE29709EBE6F
:10133000F9EC793DA6CF23BF2D152E3DA7E2D9BEEE
:101340000A3B66BE19BCAC3D34FC0ABE3C3DACBD9C
:101350006277CD3BEDF723BFE7AC1DBCD0C604BF21
:1013600012C3C83C8CDB413E05CEA7BEE54514BE8A
:10137000B51F913D455DBCBE1EF6CEBDBA3496BECE
:101380001D37FBBB120F023D38FC24BE3FAAD0BE66
:101390000BD893BC1C818ABEFFFC973DEB8498BDA3
:1013A0005F3818BD3C02233E90C54ABECE7CDBBEF2
:1013B000EAA6553D0F3024BE4F669FBD8E6C8BBE96
:1013C00084E31FBE2922B93D88D937BEE954E2BE65
:1013D0003173073EA72D0ABE7105C9BD1A63FFBE52
:1013E00005AD38BE6D17673EAD0482BE02C102BFB7
:1013F00045EA78BDD903B6BE66D0DABDE34695BEF0
:10140000E6215B3DF6F7153D38A132BE5DA9DEBE93
:101410005AABEABC80F480BED15188BDA9AFA5BE4D
:10142000A3DEC9BD6C8FAC3DAD7461BEAB761ABE98
:10143000B9ACF53CA3341FBED7EF50BC9FC029BE4A
:1014400003037ABD8DA7203EC7EBFEBD592B58BEC6
:10145000AE797B3B2B78A7BE25380B3E862FC1BECD
:1014600089EDB1BDF365203E33310CBD1EBB76BEA8
:101470006888A4BB7EF9A7BEEC01A2BD4BEDA4BE5B
:10148000B47B043DAD78013CDC20963BFD883ABE40
:10149000CEECE93DE097DCBE8616193E065A98BEB2
:1014A000C360F5BD7D542ABD472101BEC14FAABE10
:1014B000B70B18BDF17704BF008408BE88ABA1BE8E
:1014C000693A49BE15BC493E589760BE711195BE38
:1014D00007112A3E6AC43ABFFBFDB9BD8D952EBFE8
:1014E00029DE4ABDBFBA2DBD0C22E73D47E0583E7C
:1014F000E12A35BEDBB8873D09D23C3D15AB233E22
:101500004FF4D0BD127B5FBE3C77113E44247A3E3F
:101510002F69F1BDF9CCE53D0DBC1E3DB7E578BDA9
:101520009ECC43BD069C32BDD56C11BDA4AEE63D3C
:101530006D797CBE729F313ED21D443DFE5D423EC0
:1015400027CAC73D9B28E3BA5534D33D6358443E70
:10155000197FC93C3FC9F93C392F5C3DF3664A3ECF
:10156000E60DB3BD129AC3BC68B36A3E8E98493D7E
:101570006D243EBE10A7F03DD5BACA3D2B609C3D00
:101580001945A1BD32C28CBE1E00333DD3CFF13D03
:10159000825867BE0BEABF3D383D703E0D6E643E1B
:1015A0005D8A4EBDD2D05CBE509A5D3D3C811D3EF1
:1015B000C7A244BC6C927E3D3841DB3CC786E13D0E
:1015C000633B16B924FE4FBED32ADA3D7086693ECE
:1015D000C531ACBE03B2713DA256973C2C48733E58
:1015E0008127A8BD8A7B29BE7927403D99997B3EFA
:1015F000081C53BEE8528A3D6BB2583EA977E43DC1
:10160000B6E083BBB773EDBD6286733E7DFD4CBC17
:10161000E82912BEFCCD7D3D849E293DD419E7BC4E
:10162000035175BECC6B33BE0BC78E3CB9E9EF3DA1
:1016300021FB0DBDC451293EED9882BC44235A3E86
:10164000B4D929BEF31354BEF05EED3D6A2F163DAA
:10165000A60E4DBEF4C29B3D91299CBDD198843D00
:10166000710C763D2540EDBC2496DA3D40A58B3EBD
:10167000126B58BE5D06433E33E62F3CF8857D3E37
:10168000D8FEE83CA3DDE0BDDB7E303EB15E503EDF
:10169000C7DBD8BDCC1F89BCA5E6613DECEE273D7C
:1016A0006B9E0DBE2EAB76BC2C67213E5431343E72
:1016B0006BCE60BEC78BA53E261FC43DCF3DA93D66
:1016C000DAEDBABDDBFE34BEE01BD13D6943353DEA
:1016D000CC1749BEA9A55C3E8010343DD24C473D95
:1016E000082300BE54FE85BE1AE1D93CFDFE3D3EF6
:1016F00043F003BE74B7623D9C5985BC62735B3E88
:10170000ACDB20BE36575CBE8EFEE83D7EDA1B3E6B
:101710000B856BBEE245D2BC074A343ECBD7FA3DBF
:10172000B7247F3DB3883CBE3231F83D513D97BA76
:10173000EC4166BEC932C03D12D8383E391EB93DB3
:10174000BE37DB3D595E87BEB495433EB76C6B3DFB
:101750007EAD27BE0B7E573E73DAA13DE221793E76
:101760009797A3BD56F9FB3A7A881ABDEC2E1D3E19
:101770009FFF06BD5787B73C33929DBCD9A67E3EDE
:101780001C1F6A3CE032E3BDDA6B4B3D35C21C3EA8
:1017900054A316BDFEB3D53DAA55A73D81344B3D9C
:1017A00012276C3DC620053EE87207BDE7926BBD6F
:1017B000CCD8B93EE74B99BC286F5DBD6645033C6C
:1017C000340BF13D461BE13D54B4093C582DCEBCD1
:1017D000EAE85C3E39EC9A3A27BD073D5464DF3CA9
:1017E0002AF6153EC965663D213E6ABDAEE9A0BD3B
:1017F000B7CC283EC657B1BDF43C183E1365193E20
:101800006A20153E05E8843DC29897BD7BFA283DC5
:10181000FCD0343E689B5E3D90992E3EE4D184BC62
:10182000C1F04C3DE5A38A3EB30EFC3D44F0B5BD8E
:10183000DB6BB13E6AAF27BC1326A8BDEAAF0DBD76
:101840004367913DFF57993EA234C0BCACC742BC30
:1018500002C6773E6885F2BDB84DEB3BF92BB0BDB3
:101860008330C13D23C19D3EBB2AA73D75C3F2BD58
:101870005370763E253D7B3C81189B3D853512BEDD
:10188000F9DA273EC7B11A3E48311D3D1431A13D5A
:10189000EA9B5C3E756F21BEB8E700BDA41A28BE66
:1018A0005189873EEBC22F3E3FF9833B06D88ABB66
:1018B000BEB83C3E8EC290BD44BBBABCDA5C57BDDC
:1018C000305E193E2A374A3EC7D28CBD6314AB3D09
:1018D0008493A73E8EB55FBE9A21553D754195BD57
:1018E00048D4903E039A4F3E972E0D3EE3F2D93DE9
:1018F0007DA6823ED6FF733D78DE233D25C7AEBA76
:10190000401C6C3EEF76073ED71E9A3CBB97D8BB77
:101910009C14FE3DC48B7EBC530B033E267B58BB00
:1019200082E8F83C1C4E063EABDF313D39C4B6BD03
:10193000D933A03E1091243CBFFDF53DB88771BD61
:101940004D6A043ED6F9C23D6F28713B16F920BDA1
:10195000495B6D3EA47D9D3D77F9A3BC4A792EBEBF
:10196000B3F33B3E61F7113E0D89F4BD1945B63D19
:10197000DFD7073E8EA1783B69C9C5BDDBA6243DF4
:101980008EC4003EE44D893D700D573DE0F7E93CC3
:101990000F773F3DDAAA48BC2BFBD6BBE7FB133ED3
:1019A000C564383EB38A863E1EC11CBDF9C45EBD07
:1019B0007B5D813E3B06473D5FADEA3D03DBB7BD46
:1019C00013708D3D8808903E6839DDBB921D9FBD28
:1019D00079297B3E5732AA3C371EBF3BB3BC9ABD28
:1019E0005FB7AF3D92C1C63DE4B6D93D20E7413D6A
:1019F00089F5923D46EE4D3D6400253DFBE501BE77
:101A00000E35493E6E808E3E3E13803C7777503DCA
:101A1000F6D2FA3DD7B19F3C274D263EF368E1BC94
:101A200026D6223ED1F1883E73B58FBB1873CCBD4C
:101A30009E36853EFEFDBBBDD7139C3D0D67C0BDE8
:101A4000DFA4213EAF915C3EB3D76FBEA509C0BCF9
:101A50007FA25F3EC66DAD3CDAF77CBECF651DBE92
:101A6000E7D8B3BCCAA9133E3ED9DCBE3FBA52BFC9
:101A700055612F3EBCB69BBEA02082BE4493C9BE1A
:101A80003619023E2C3142BD4738BEBEF35CE4BE7F
:101A900076A77F3DA4C228BE8F7669BEB3DFB6BEEF
:101AA000A62200BEDE0E87BD33B564BEF61D15BF8F
:101AB000CDECCCBDF0A995BE869B7DBEBAB6AEBEC0
:101AC000730D54BE1CFE353E0EB0F4BD4F2D2DBF20
:101AD000FF65FD3C342295BEBEDC3EBB8D08E1BEF9
:101AE0006C46DD3DDE45013E9AA64EBE71CE06BF78
:101AF000847CD7BDCF73C8BEE9EA82BDAC9FF2BE7D
:101B00009E376DBC3D83273D479644BE36A7A4BE95
:101B10008B67C1BDB1036CBE47799B3D4891BCBE8C
:101B2000D78F96BD52F63F3DD451BEBE6BC976BE2F
:101B30007DC7ECBD59699FBE9DB6C1BD93D902BF9B
:101B4000E0FE8FBDC598F03D4E60CBBDC0E878BECD
:101B500083D9FD3CB180C7BE242CE23C3AD7A1BE5C
:101B6000152A00BC243B193EE41E60BE3C9A9BBE75
:101B700097B23DBDC09A00BF2FA0473D9105C1BEA1
:101B80008D5F91BD2BED163E443C7ABEA88847BEC2
:101B900004C4A73DB537DDBEC1A63D3D02E244BF4A
:101BA00077581EBDD827E4BD5A836FBE9BBCA2BE2A
:101BB00058C4123E376BF4BEC39E0ABE8ACD8DBE9A
:101BC000E05D9DBD68F16C3DC0FE80BEBFBC18BF2E
:101BD000A55E7FBDAA24EFBDAFE842BEA762ECBE02
:101BE000BAABCABD3AC0863D87A6DFBE1F9FF7BE0F
:101BF000AFF8413D4B0E9BBE080EA4BC092895BE14
:101C000060F2083C2380C03C157CEBBE28891BBFDA
:101C10004EC36EBDACD3D7BEC5FB1F3D24BE05BFB2
:101C2000F42544BE053BFA3D07CFA1BEE022EDBE40
:101C3000D4EF21BCDB34E8BE9A83B03C0EFFA5BED6
:101C4000D40F623B262CC8BC58076ABEF9DCF7BE2D
:101C5000BE330BBD7CB6E2BE6E993DBDBBE6C3BED6
:101C6000D3AE6A3DE9A513BD28863CBEEEE751BE62
:101C7000A4A18C3D748402BFAB9215BE7179ABBE3A
:101C8000CD0FC93D1CA3CB3DDF2D19BE51B24BBEBC
:101C9000C5F3393D481458BE2F45A73C46A4A3BE02
:101CA000B05F05BCACF7073EB5FA8ABE9A71DFBEDD
:101CB00029BE1B3E252816BE35C146BDFDE11DBF10
:101CC0006737133D5087413D3056B7BDACD987BE0D
:101CD000A315E4BB0DE5B5BE275102BDDBEB00BF8C
:101CE0007B93F93D8BE0093E75D52C3E508788BE2D
:101CF0001DC1AC3D9D14F6BE7F8449BD13E59CBE5D
:101D00009095BCBD9082E83D7D94093C80A134BE95
:101D100048845FBD78224EBFA49D21BDAF542EBF25
:101D200040978E3DAA938A3CB553153E4DC9323E2D
:101D30008A179A3D94F1783C1BA6D7BD40FF4E3ED2
:101D4000A498563E5F935E3D0803B63D53662D3E14
:101D500067F3683E7680E5BDBCCF2C3E74AACABC52
:101D60008D5B85BC2C62443E9EACB33D1957613EF1
:101D70006791FC3DEBF12A3D5573C7BD167B9BBCBB
:101D800077812A3EE82B943DBD776B3D50F6EE3DC2
:101D9000C88CB23CAF8D1B3E6663D23DF7628EBCF1
:101DA00017A9BF3D5C9E5DBD1E39CA3AC027CABC9B
:101DB0003BDC54BC12BC863D2022D53D5573BB3C58
:101DC0002D5FF63CDF43AC3D0BCC55BB2A716ABDA1
:101DD0003F45E4BC72C38B3DE55392BD7D69063E31
:101DE0000031A8BD5E67A83D198F313E255F6E3D6D
:101DF000FF2D2A3EF2AC02BE82FACEBC31DE20BDFF
:101E000068913DBD72479FBB00FD8E3D9C43623D86
:101E10007AF942BC8C580D3EEA4E44BBF8F18ABDBB
:101E20007624D23D294F94BDF0F8B0BDAB1182BAF3
:101E30006C8C1D3EB5D4793E91F1913D4C9AC93DD3
:101E4000717E3A3EAA8BA3BD8A534B3E6A4E023E38
:101E50006A4A4A3ED5C1123EC01BEB3D98D1593E5D
:101E6000885D623EE05A77BC3A7A0F3EEC17523EEC
:101E700042D29E3C15A1FA3B9616243D0914453EDC
:101E80006192003EE99E983DDFC43D3EC39E46BC44
:101E9000E7471A3EAA774E3D1576773DD6BB093DFA
:101EA0004ED2313E98572DBDE75DACBC25BA873E7A
:101EB000877BF73DC7A7EC3DD734F9BC3F4AAB3D24
:101EC000C3D1343DC7D3CA3D9EABB73D01961D3C3F
:101ED000152E0D3E54CB403D54DC733C67EA3C3E2E
:101EE0008D927A3EF0C4E43D6F4AB2BC20EC983D3E
:101EF00076ADDBBBF257773DCD9E97BD17189E3D63
:101F000012C70A3D036BAE3DF6F0893D595AD63DE6
:101F10001F6E703E4F99643D20714BBC4B6F50BC9F
:101F200092CAE93DC622313EE0B3253E89FFED3B32
:101F3000F5637E3D3B49033E612CECBD2351AC3D36
:101F400069E4253E3C46683B8B260B3EEAA1103EE9
:101F5000F2C4873EC397F73D0EB7853DFB16213E81
:101F6000D464393EA51CC83C44D029BD52F1A03CE4
:101F70005245543E5D570B3E1E8D943C5C998B3D03
:101F800067571A3EB9F4123DF9007C3DB9F9373C68
:101F90001B322F3DB3C234BC0C76083ED560613E87
:101FA00066F7B83B6338A7BD683C3ABE5650E4BC00
:101FB0009E7818BD0CA5183E6265E63D039B083E61
:101FC0001ACA8E3EA1F6283E0FCCBEBCE15ACEBA4C
:101FD000E4BF3A3E5895433E7A60AD3DDBEC903D20
:101FE00084794D3EBBDEB9BD8927D93E049C133FA1
:101FF000ABD2113E4E94713EA99D403ED2406C3E04
:102000000F7D143EA6F8E33CF3D1833EE3EFCD3ED3
:10201000A2BE0A3E7A9D083EA698453E8B757BBDC2
:102020007781333E1EFA573DD02F8A3E81C68A3EC5
:102030001B1D843DEAEDA33E7AE4883D5D09B83D71
:10204000B7ED063E0D2A103E6742083CEF32813E56
:1020500019A3C83D857DE93DB195BB3DE5AA263E66
:102060007E17CA3C0119C13DB4C26E3E9768433E1B
:10207000F038DCBCA8A73B3D340747BCEAFAF53D85
:10208000847AF93D312C5B3D76A4313EC4E0EC3DD1
:10209000B9C5023C9931993EAFFFD93D95A4AC3EFC
:1020A0008222E43D5F4A62BD5F75923EFF28B73EE3
:1020B000810F9F3DD3118D3D445E173DA75CAA3E25
:1020C0000D67823D843DBB3C3FD4C93DFDD5B73D46
:1020D000E517C03CD01AB33E786FE4BCB1F3883E3C
:1020E000FC14B73D1523F5BC6DA7793E8E9A2D3EA5
:1020F0004324C43D41A6163FE6A90D3E28D1ED3E3E
:10210000B33D6B3EC9E6D9BC8D13863E59E79C3E74
:10211000F2EAB63D785CE83E3F8D823D3D06183FD1
:1021200090BD9E3CACA09CB94278813E0F21613E9F
:10213000EFC8323DB9C29E3E4183A93EC552503ED2
:10214000B7D7653D1850013D942ACA3C4DFDF43E79
:102150002BFEF3BC58BE263E040D913EB265953E63
:10216000C1498C3E93547E3C9502B53E4D4CCC3ECD
:10217000C8156C3C27024A3D01BF0C3EECC3A63D8E
:1021800027312B3E312CCBBB40B6663EFC89053F48
:10219000137FDB3C738A3A3CA75BA23DA3E6CC3EAF
:1021A0009E1644BCEC69963DCB649C3E399E963E9F
:1021B000248621BCAD15BA3E0275803E14E2933EE2
:1021C0004579DF3CEBF68F3DE1F3BB3DD1D8F93EDD
:1021D00050932F3E3076BA3E2399733D3201C83D6D
:1021E000B929C4BD42ED0E3E71D8683EBBE2E73D61
:1021F00078239C3D3D73BF3E169C93BD1C33703DC0
:10220000A8F93F3E96B3C23CF94A783EC2AD443D80
:10221000358B8D3D72F3983E2D1FD3BD165DBE3EAE
:102220006BA30DBE9F0C0B3E8F6B163DA81E083E88
:10223000617D56BDBEB5943E35048BBDDD57433E32
:10224000A593023E901FEEBA1EB3E7BC6372A03E98
:10225000C04778BD301F5F3EB7BD513E8993123FE6
:10226000D681883D4BD3053EF4760E3E20726B3E00
:10227000B5811B3DC045173F0E09353E5A61003FF1
:1022800011586FBDEB2EDFBC06BAA13EA780203EE1
:102290005205423B5A03373F3DC06D3E08863A3FE8
:1022A0007CFBD53DC010F23DF0C9193E31B109BDEE
:1022B0005218603D975B9C3D75C9CF3D87EE6ABC67
:1022C0009ABA183EDA526B3D9341463E561C393D50
:1022D000DD67AF3CAD270CBEEE3B8FBCE07A173C10
:1022E000D714883CC89BBC3A8261D73D867B59BBDA
:1022F000779F303D7F455A3E0A11003EE195613E91
:10230000993B833E3CD1B6BD4B30ECBC2751363EA9
:10231000DE94153CD35D173D5A7CD43D1A230EBC88
:102320008FF2503ED7E4073B9F3A273EABD7093E9A
:102330003CDB353E635CAA3DF29EEA3DD747C63D95
:10234000E7081C3E0E94253EBE9B1B3E9F52733DEC
:10235000FCF54E3E9E27DA3DC6116F3D5A926F3D09
:102360002E851CBCDC22B4BD5EBE0EBD95039ABAA0
:10237000F4081A3E5F601CBD5551F8BDFC19123CB3
:102380005A30B33DC3FB813CDA9092BDB00D4B3E59
:10239000FBEAB63DCA608D3C50E2103CCC4FA5BD77
:1023A0006B40DD3D5F85F53D39F9183EA81863BDEA
:1023B000CFE93A3DD5E5403E50CFA2BDEEE8063E1E
:1023C000E3979C3E0DD9E33CDCBD8C3C2713433E98
:1023D000EF4D0E3E3412713DB501673C4005753D31
:1023E0003588673E1438C13D5A54673E20B9BF3C1A
:1023F0000FE6283E5B8A49BDFF97133EBE7E0C3E2A
:10240000B0450C3E1316D43D8E7FA0BD80CC6C3CF5
:10241000AA23D63D69821F3E2CC2443E4B81413DDA
:102420003B558E3E1414C43D9004C13CF7F9E83D81
:102430008ED8613E68BB61BDD85B90BDE5D76CBDF1
:10244000EC082A3EA43E983DA981B53DEAD3F13D72
:102450003A4E2F3ECD6786BD8D5270BD08FD933C30
:1024600046766E3DAED7033E39113B3E34B0493E11
:10247000AA27593EA03EACBDCFE19EBCEFB6913D30
:102480003657443E1604F23DFAD07BBD6D85213EA1
:10249000D7B6B93C78CDE6BCDD9213BE133C5E3EA8
:1024A0004B70293E3E57D73DA3AA163E7BB7CE3C84
:1024B000543FEC3DF524EBBDBE6E763CED31FCBAED
:1024C000CD84293E4A8CDE3D4630763D5CC398BDC6
:1024D000FBD2103E600F0F3EF4D4B33D4EBB843DA3
:1024E000BF9E063E8821CD3C88CC723C0A34D93947
:1024F000F299083E06E3D3BB2CD8F63CD38DBD3D04
:102500001234CA3D5DB2443D11DD7BBD9AE34C3EC1
:102510001D597C3E97CC453E05D5E83DDF65133E11
:10252000B259823EBC30683EE06C33BE35C05F3D80
:102530002138933DC717A23E5A7029BE9F03423EE1
:10254000BAEFB03EFCA9893EB4EE23BEB3128E3C76
:10255000614542BC3DEF9E3E2CC368BEFD6E0DBD85
:10256000230971BD9631993DEBE30ABFDFAC1DBF76
:102570004FD625BD15670FBF2F0B5CBDAFC5E4BEA1
:10258000B36A22BDFE07B7BD117C0EBFD15813BF81
:10259000F7008D3B8E48BDBEDED446BE719CBFBDEC
:1025A0000FC205BE82507B3D79DA88BE718A25BF95
:1025B0002B0CA53D04608EBE5DFE1FBE1E8AC9BEEB
:1025C000AB6E23BEDEE956BD3DEB1CBECE69EBBE55
:1025D000F178C63B48FFBABE5147333D9CB310BFAC
:1025E000A07E28BEFCC316BD0F471CBE4582EABEB6
:1025F000435919BDAC48AFBE787471BDA2BE81BE4F
:10260000C24077BB2F8F55BD015497BE74B2D4BE64
:1026100035BD77BDFA0975BEAE3A843DEE30BBBE1E
:102620007B6288BDF1DA773D2893A9BE9B6FBABE65
:102630000E08BFBC1F730DBECEDB063EB0BC5FBE36
:102640000C8170BD8CE8413EFEF5C1BD9A3393BE4E
:10265000D12E9E3CB91DECBEE37A11BE5C1AF6BECB
:10266000DD50A33DE75EDA3DAA3529BE6FD5BEBE7B
:102670008B5CDC3D0BDE47BF4C877A3DAE6A00BF0A
:1026800078FC22BED9E7053EA8ACD9BED9BDE9BECB
:102690004458C13D9D27E7BE120E2CBEBE0028BF88
:1026A00001BE853D72D4AD3D974195BEE5F905BFAC
:1026B000ACED923D1E2152BE1F233DBD7409F9BEF3
:1026C000A8CAA63DE2C854BDB04BA0BE100E07BFBD
:1026D0005780CDBDC55FB0BE8A6E71BEE9FE0DBF2D
:1026E000C8E05A3DA18B3C3E22CCCCBECE0DD5BE1F
:1026F00062511A3E5128D8BE97A331BE1F93E9BE3E
:10270000C2E42BBD6B6B093E235ED9BEBA3EB6BE9A
:10271000170C01BD6970DBBEB78489BD4FAD12BF18
:102720002DBF82BCBE981D3E77D5B3BE6A54E4BEB1
:10273000ECDC043E63E79CBE511A6BBE2D1AD2BE80
:102740000B3A503D392736BDE0437FBEC6A51EBFBC
:102750004D862E3D4F01A6BEEF533DBEDA0295BE1B
:1027600059A8173E1B5AF63D53302FBEE64508BF09
:102770008376FE3DC071F9BE39AB7ABD3CFDB4BE77
:10278000FD707E3D5B29563DF8CFC03B1566BABE55
:102790008D65A8BC9CADE6BEE7C210BED2A6CCBE7D
:1027A0008A3ED23D80AE033E3168CDBEF678B7BEDC
:1027B000C8F991BD7B08C5BEFB0D9F3D617E1FBF63
:1027C0001C5420BD15ACC83B112887BE5F7C9BBE46
:1027D000968158BDFE4BE9BEC694903B59B612BFD8
:1027E0003972E0BB3522533D61F2813E76F53ABE47
:1027F0007800193E9F5611BF68995C3DD307E3BE30
:102800009C35DF3C2A43193D7448A13D892710BE01
:10281000C67C283D464245BFA59C4DBEEE322ABF30
:102820002CA8AC3DCE87BDBCA657833E2E7BD03EA8
:10283000CA120D3E642E533E1240153E1C6A2D3EB8
:1028400040477E3E0F6B92BDDD2D673E15DACC3ED4
:10285000A9075B3D1C7F28BDC93F453E15F01C3EC6
:1028600097BC0CBD6D5CE93D78F3173E2B1E833E93
:102870003381A43CDA69B33DAB622F3E3A69833EB3
:102880008F62303E8E7B35BD323A22BC7E856E3EF5
:102890005DEDDC3C851F25BC88A3E9BD453B613E61
:1028A000DA925E3E53FECD3D61A6BDBCEC28683E8B
:1028B0005EFC40BD7CEE813E47B5CCBD9E26023E0F
:1028C0003EC471BD2C692B3D7E8B0FBD4DB99F3D24
:1028D000D55D473D7060313E9662A1BD61D6EE3D4B
:1028E000E29C063E31A86EBD671FBC3D49CEA63EA8
:1028F0002F4CDC3D9BFF6D3EBF0DA13BF351753E60
:10290000AA2FF03D310EA13D8D7284BC018D183E81
:1029100005723A3D4AFF763E2C08D8BD5CBC643E49
:102920001B1085BCF2B27C3D50CC91BD560C803E54
:10293000E6A81C3E74EEB93E63FA353ECB17883EDE
:10294000A290613D11D7CEBA0A47AD3E4ADD8B3E1B
:10295000A97180BD596ABE3EE3FE25BC3DD7E13E6C
:102960008F54513E565F71BDED65B13E4B2EBA3E60
:102970007E0F893DB891783E73B35B3EAFF36B3EFB
:102980005373613D43436F3CBA8B5E3EFAD2213EA6
:1029900056C488BD83CB123E3E4F163EE6D9523E0A
:1029A000C5214D3D62430A3B6821003E06DDAE3E37
:1029B00089683DBD038E6C3C8C8DBABDFB19033E0E
:1029C0008597943DD4778EBC769D733E3D78693E65
:1029D00060D8A4BD4625D03DA081353DF871983E14
:1029E00053B0653E9EF9C3BDAA89E93DAEEB443EB6
:1029F000EC43393E69CD5E3E4616893E38F09D3D3A
:102A0000881894BD3BF9023EEEEB503E4D0DBA3EA8
:102A1000E17DEC3D6E3ABB3EAE16D73DF3C1373E8D
:102A20001C4B5ABC5C15B7BD73C3403EF167723E88
:102A3000828B963C0208BE3D2891A73CC592933DEF
:102A40005B35A63DAF54363EDBD926BD5A86623E85
:102A50002951393EB4CF223EE2B42CBE34C0873E69
:102A6000D9768B3C72492ABDCA68853DDF7FA23E7C
:102A7000710BAD3C731C953EE02AA73D94DF993E57
:102A80001DF4BC3D1178D93D8457313EBC97E43DDF
:102A90000E06433EE5B8DE3E074086BDFA658F3E32
:102AA000062A90BD19BC86BD6030953D1C160F3EB0
:102AB00099BECD3D2260E03E22E08A3DD2A78A3E0B
:102AC0003E86593D05F2583DFC3FB33DB0580D3EA2
:102AD0004019FABCDD56FC3E9792753D5B45C43EFD
:102AE0000009A33DDA99E73D3F4A753E4300093F9F
:102AF000EC42FE3DD1054C3E4DB5553EBCB03E3E90
:102B00006EA8BEBC127AE93D4CB9993E152F8A3E9B
:102B10002EBCF63D541C593EC8DA573E107D1CBDF4
:102B200007D6A93C8DC311BDDE5D893E4E988E3E11
:102B3000598DA23C5A22593EE31B8EBD2A82E8BC25
:102B40005C442BBC7A21943D7D53ECBC6F388C3EA9
:102B500031DEE23D98B2D63D0D14173C1BCB383E1A
:102B6000C237D6BDBF768A3D6E9F11BDDEDF893E7E
:102B7000AFA457BDD0884F3EA46F013EE684023D0E
:102B800004B1B83D1AF9933DE4592D3EE98D1E3E3E
:102B90002BF1F0BC5B4DEA3D1776DEBDBBE3F03DAB
:102BA00039AFC83D1BE5B63CEB5F563E52D0393ECF
:102BB000D9808B3C7BBA0A3E03B5BB3D2B159D3EAD
:102BC000AC31083DDC8DA93B335A703DF1CF8B3ED3
:102BD0006426EB3CD37C3E3ED44E2E3E95916A3D1E
:102BE000F11EC13DD3119CBBC21985BC3690473E36
:102BF0000686A13CB1A28D3EC1CDC63C81C87F3EB8
:102C0000C5DBE03D3A5FED3D018BAD3EEE6D063E2E
:102C1000EFE298BC793C923E983682BDCE56073F93
:102C2000BB5B0F3D75432C3A4DE9563E3382453E22
:102C300098DEA33D17E62C3C6AFCC63DD58CFB3DD7
:102C40002017DB3D4D18183DDA6F063EB34D3B3E75
:102C5000609554BDD670083E16A2233C9EEB993D6C
:102C6000C582133DA475B43CF3B8EE3D0A62093E3B
:102C7000E22CA3BA0D530C3E2162E93DD7EB1A3E7C
:102C80007DB6573E409FBBBD1DD9463E1FA1B03EFD
:102C90006A4F2E3B34EA5F3E6925803EAE4A3E3E97
:102CA000595A783E41B2AC3DE39E8A3EECA1E73EE4
:102CB000EEEE1B3E23B1053E087429BC9902BC3DD3
:102CC00013149B3C4E5C873C74A16E3EC344D73EBC
:102CD000F1DA4A3ED441813EE243F13D134C9F3D3F
:102CE000D139D1BDC5BD0F3EB31884BC6DC61A3DE8
:102CF0000D1D893DEBCB973D52D5A73DD652933D57
:102D000096C3223E9E52EABC4758333E930D513E35
:102D10007D1DF13CC3100E3B27D286BD83BE5B3EBA
:102D2000F25F07BDDD2C953CD0F64F3D0A28673E8B
:102D300083142D3E3BBBB73ECD76C6BC62FB983EAE
:102D4000A3018A3DBE57BBBC9362DD3DEE2E6E3EB5
:102D5000ECA1143EDA815A3E89811C3E1E70BD3EB4
:102D600071DB1DBEC5B9CC3D06CD43BD78D7903EC5
:102D70007BBB82BD2A5BE93EB5EF8B3E6178DF3ECF
:102D8000E4CE563DE5D2A93D2E1C3E3E656B063E87
:102D9000EE62BCBB7DF1003F55580E3E7DB5243F31
:102DA000CDAF0F3E92C9B3BD69AFA1BDC66B303E7A
:102DB00093CD3C3E8A77CA3D58D2A03D68780EBC80
:102DC0002A45213E2DD3AB3D3A813B3E3CE81D3E9A
:102DD00085A0183EEB90103EBBC6ED3DC69D903DD4
:102DE0001DE23C3D22A040BCDB23923EF579733DC1
:102DF0002019523E3D6C9A3D45FBFABD2ADB1FBDB2
:102E00001ABC6A3D0B05E1BCEE08A83DE813943EF0
:102E10000233063EC438EF3D38BF35BD0BAE47BC6C
:102E2000782C463E3DF20E3EEB2CCA3D9261F53DBC
:102E30005D3FA8BCC279F1BC7BD84CBE1A9CD13D89
:102E400014F48A3AB948203E21F30F3DBCF7D2BCB6
:102E50003AEAA3BC41EA0CBDC018C9BDD2B1BCBBA3
:102E6000D8F0053E4F71103EF28E883D210DB43DE5
:102E7000273C3E3E1954CBBC6DE21FBE84191A3E5E
:102E8000965F613DD2A81FBE88C176BC3021DB3C75
:102E90003805BE3DA80CDF3D78D6ACBDC7A15E3E6F
:102EA000E82D513EF69C04BEFC91233C3A98E4BDCB
:102EB000DF8A283E670EDF3C8087303E6F8A243EE3
:102EC00035FB0C3E919EBABDEEE7073E1C15D03C8B
:102ED000E648C5BCC86C0F3E6ADFC2BD86666E3E62
:102EE0008F0C923E9A2D9FBD6D569D3EB611D53DDD
:102EF0004893163E97E3533E4369F53CA68F4A3C00
:102F0000DA1E1B3E26FC143DC7EB193EAD9C6C3E01
:102F1000DBFFDD3DBE270C3E8F8C383D718B1B3EA9
:102F20005C40953E165ECF3D36AD4C3C6781553ECC
:102F30004EC1773D74AF113E43E6233E3DEDBEBC2E
:102F40008A7CE03DF5BF043E62190E3EF9E0913EF9
:102F5000C6D5EB3DF2763CBD4668773D738A333E7D
:102F6000CF38823EE329F8BC0D06DC3D6359503E64
:102F70000E0717BD8286FA3D6F1E043E9A70A33D70
:102F8000EB4F76BB0891113ECC31253EAB1A243D68
:102F900093A6263E5B31FF3C627F773DA120043E35
:102FA0005AA932BCA1B7AFBC7DC3363E9199ECBDE6
:102FB0001098523E522F1B3D1115E13DBC427F3D02
:102FC0000489F63D2798883C87443C3E575A113E79
:102FD000327F293EBB89B83DA26C28BDEF2F0E3E43
:102FE0001BD7AE3D4E90263EE5EE863C7B73303ED1
:102FF00050392B3DE0CE3F3EE50B9DBD53AF653DC7
:103000002108463EB68B96BDF1D587BDC597BBBCA2
:10301000876D1C3E884CA03D6E123B3D79499C3E1D
:103020008A72873EFDFCE73DECED9ABDDC08F7BDFA
:103030004C3BBDBD48954F3EB4FE8F3B8AF88D3E5C
:10304000380FB23D5160323EDBF9E03C3401DEBC6A
:10305000115EAABD2EBFB83EA89A1D3DA872A7BC9E
:10306000111C393E0BB32A3EA30829BE67633DBE3F
:1030700000F4133E3917813C6FBA38BDF9D9BEBD93
:10308000D9A70C3EE30D283E047CA1BC7E5FAF3D7A
:10309000F6D3403E0EC9EE3D7AB910BDE6D4673D89
:1030A0001244DA3D7103463E9800B03DE0C1C0BB1A
:1030B00053D78A3D7ADC3CBDD8F3D13DA894C03DBE
:1030C000EEFA2E3E3A952E3E165FD33C902DCB3D28
:1030D00000D6633E19B2F23D4D12493D6DC7BF3C6B
:1030E000DEA6473E8E882B3E691DA53DA507263DE1
:1030F0003431903E7E7FCF3D71EB003E66CC82BD89
:103100009428133E83BE4E3E30C8093EF2566FBD32
:103110008AE7983EBA6894BDD553CD3C7550B1BD91
:103120005692153EC618A63EDC8227BCFF45B63D2A
:103130005C0BF93D6F714ABCF078613D8DD988BD5B
:103140001EDC003E729C413E933F643D3F0CDFBD60
:103150006212803E3503753D649BFF3D8DA8BBBD6B
:1031600078C6A43E3B79A83C72D2BB3D8C96B33D59
:10317000C2C0BC3E853CF5BCA8E49D3DE36B88BD68
:103180007F66923E4268113DC881593DF1D968BDC4
:1031900026694A3E08D71DBE7E87F6BCA39FB33D75
:1031A000E1ADDB3E1A93AC3DFD2727BB23C6ADBD89
:1031B000F0DDF83DEBA811BDD395DD3DEC1749BD21
:1031C000FAD89F3E6B570C3D78FD093D4FD82EBD78
:1031D00018A03F3D843A37BD39ED2C3E2616CD3D33
:1031E000841B4E3D1F7A753E4787E7BD5DA60C3EAA
:1031F000A2099C3D2F9D843ABF3FA03CE3269C3D05
:103200001A4FBA3DBFB1C23D4896A13BE4528C3D36
:10321000B595633E527AB3BDB733BD3DF7C500BE29
:10322000F4EFA13EE72E943E61D83DBD5DBE13BED6
:103230003394A93DAB0A863BDA95503CC5BD05BE2B
:10324000378CA53EDED615BB149EF03BE48AAA3D22
:103250009AD92C3E1CB7193ED95FB5BDF2EFDB3DC4
:10326000BC42993EFC1F043E3FECCBBC5DE27A3C85
:103270001FC33C3D82353CBDCFEF703DEF0BC63DDB
:103280007673C83D90A33E3EF6E2673D8A54A6BDE4
:103290000334FF3DE205413C5A2E1A3DC350DA3D4E
:1032A000AE793C3EC6E0993D2B2C1D3E7813F6BD11
:1032B0003EE5D83D5064563D3E9F12BD7328133DF8
:1032C0005A62E43C12B26ABCF07EF43D9FF4363D93
:1032D000751CE23D222104BD63529B3D1E9DAE3D07
:1032E0002AE0C93D7F68933EAB180DBE39AC32BDB4
:1032F000E1629A3E4508C0BD0FDD1D3D492FD0BD9E
:103300005536113E4423823E0BEE85BE511067BEFA
:1033100064D7603E63E8DB3CBE4F27BEA89C59BD26
:103320007C423FBD1101FABDA73FE4BEBA143ABFCB
:10333000382C0C3E32ABD4BE36462EBD3BDFC9BE68
:10334000F66FE8BD392FB1BCAD05D0BEB9AC22BF18
:103350003466823D984418BF2A9450BE00BD81BE99
:10336000A4D1D43D8A42B03D527FDABED51815BFF4
:10337000CFC5F43B28F305BF43FE1CBEF84F18BF72
:103380003948E8BDB109273EF1C5F3BEFDDF09BFED
:10339000767157BD70AA19BF5F943BBECD581CBF54
:1033A00052E1E33DA833C7BD5EEDB7BE036EC8BEB4
:1033B000CC1E5CBD1EDE9FBE051B3EBEA3C5DABE95
:1033C000357BA4BD9C8165BB6E64DABE6120E9BE1D
:1033D0009850493D6D3FB6BE608BA1BD016BA2BE4A
:1033E0007D513B3D237A71BD158008BFA9138BBE6B
:1033F0009A66C5BBF14CDFBEA98E283DD95500BFEA
:10340000044F313EFF12873D9A4EC3BEFAFEFABE0C
:10341000F5E4333E604D07BFB97BE0BDB9C4F9BEEA
:10342000920AA8BAE9E4BE3D3A56D2BE3CF99CBE27
:10343000D716473D38AD27BF0AB7ADBB83FDFCBEED
:10344000909444BD8DA69CBD29F8D3BE8AA78ABEA0
:103450003FA0DBBC6F2D2EBFAC9214BEDE185ABF4E
:10346000BC3107BECFBBDEBD7335BEBE72F70ABF2F
:103470001FFF8B3D9A54ADBE926118BE4E8B3FBF6D
:103480001A0D093E211EC3BC26A8DABE14630DBF67
:103490003683B83D42691CBF58F591BEB43009BFB0
:1034A000070105BEB98C393E8285E9BEB4F247BF3B
:1034B00082013FBD46D116BFE1E48CBE77700ABFE2
:1034C000836C263D5F43C7BDFA1625BF018B0CBF39
:1034D0008DC6293EDE9831BF0D6662BE4DB027BF56
:1034E000E1FAB23D963F8F3D5C33F2BEC5B105BFF8
:1034F00057106D3D2244D5BE7647A1BEBFF11FBF18
:1035000041D71A3ECB7BC0BDB7FBE2BEA72552BF59
:10351000C0664B3E0427DCBE6BF6653D34CBECBE8B
:10352000563D813EF7219FBCD6BB07BE141FD0BEBF
:10353000D8AA2EBD85290BBFA2D315BE385619BFF8
:10354000B7D40DBDBEEC313DCC86A9BEF59781BE8A
:10355000B4031EBDDF98F2BEA5CB733D14191CBF8A
:10356000CDBFB73CABE62DBD8125C1BE425BF7BEEA
:10357000F577323E0E78F7BEA672F13D018B1EBF85
:103580004D09173EB60F4F3EC81776BE9D3503BF97
:10359000CDD00FBB5456CABE77A076BE8DA8FABE5A
:1035A000BDD7143D7717D93D9495073EF78A05BFDF
:1035B0005584403E9F8E4ABF3C8A643DC6790ABF0F
:1035C0005786C4BDF0FD243D8BA950BD003C04BE10
:1035D000837C033E717D54BF03C3E2BD397730BFA6
:1035E000C8CE8B3D6ED817BEC99F733ED0F6323E13
:1035F000F3AEE4BD3B98B43D87074A3E1516A23EA4
:1036000091B991BDB4DDADBCBFC93D3C14FF223EB4
:1036100024EA59BC433D983EB5F5FD3B2EE34B3EB5
:103620003259BDBDA62958BE53BD833D2895773E6E
:1036300073F808BDC55C203E1CD55FBCE1A5C63D46
:10364000F85C9ABD78EF6DBE801F533EF4F02E3EBD
:103650006922EDBD2B69003ED3E1173E59990CBD9F
:103660001FBD98BD3E6F46BD8F7EB8BCC8894B3E1E
:10367000469961BDBF96A43C4D69573EC2BA6F3EA4
:10368000BED9C03DB924E4BD401CD23DD42C903CF1
:103690009C41A0BEEA97583E40C5183DAA503ABC8E
:1036A000EAB198BD6BBEACBEC43FF93D3B09263EB6
:1036B0005D5D7DBEF5FDAC3DFE493F3E67BF6B3EA7
:1036C000A450D2BC718D84BE9362603E67113A3DB6
:1036D000B49672BEAFC4883E6AB3393EEDF4113D74
:1036E0007E9F0ABE22B378BE01E4B23C93E58B3DD7
:1036F0006644D2BD40D7713DBD74563E714DDE3D2E
:10370000810FFCBD9C2E82BE87104F3E9AF45B3E1B
:103710006086E6BC1DF4863E4AD8143E07AB923D57
:103720005F7E73BE852A08BD39BB663EC8F6883DFC
:103730007FD946BD58A23C3DB809EF3D62A85C3E2A
:103740008C4E15BE3D6530BEB4283A3EC9E7CB3D30
:1037500094A0F5BDEEE2173DD4B2133EECFB203E43
:103760007B6E713D0722F1BCAF5B7E3D474CA5BC33
:10377000A2A71BBED881DA3DB52A04BD1CE3763D65
:1037800092BDA03D7D7A7ABE3BB9A03D6B0F563EFF
:103790000CC800BEE721053C3FF8953D847D833D84
:1037A000A6DFDCBBCF889ABEBA7B4A3EA4D0803E5F
:1037B000729498BEC55A6C3EF45DB83D524CBC3D07
:1037C0008905FCBD12CF96BE25BB2F3E5635BC3DAC
:1037D0006AE08DBDB9B4113D876998BD7D3D263D38
:1037E00038D077BCCBB949BE91FDA8BCBBCD9D3DBF
:1037F0003F2D41BE6001743EA9D24A3E5724DB3DB5
:10380000D09F44BE8B6282BEE61338BD155E583E23
:1038100003044DBED004DD3DF36E1CBD207BEFBB29
:103820002B9A513D3FA623BEF549303E7134563D9B
:10383000A60297BD91EA063E1DE5E33DE164FDBCAD
:103840002B4108BDC4ABF1BD4EDCA53CE27E653E1C
:10385000A656CC3C373E8E3E5E6AD4BC07287E3CE2
:1038600007FCFB3C32874FBE806DAE3DF30686BD44
:10387000D7832ABED0D9133EF67D7D3EF2C94D3E98
:10388000AA1F263D83E2A0BD91A4E73DD252E13DAF
:103890002F407DBEBEB9A23EEE41F73DC3B7093E03
:1038A000B4BFC1BDF269A4BE0BF9D23DD617913E9B
:1038B000385963BE58470A3E08C4203D4631553E3C
:1038C000DAEED7BD79AE92BE0903233E302C723DAD
:1038D0001A217ABE750BEC3DBCA6083E4243003E61
:1038E000039C893D15F230BEE86E72BDBC94203E4B
:1038F00037B3C63CDB0024BD2416773C9C4C843E89
:10390000502A693D91C55ABD72686A3EE1A1943D55
:10391000B91D79BE88531C3E7B216DBD4B642A3E88
:10392000A58C10BEEAFB4BBEDF707E3EA061DF3C83
:103930007194A9BD4557523DC642183EF0EB193E61
:10394000F797BBBDFE21A2BEFD2A813EEA904C3D09
:1039500073FB18BE5513673E267B033E38049B3D20
:103960009420AEBCCDB787BE2EC7B23DAD6F8D3EA5
:10397000C3DC7EBE55151F3E9727D33D1480823D84
:103980009857853C996E7ABE17C99E3D2835713D82
:10399000CE6487BEA741263D6FB4FBBC50E09B3E82
:1039A000B588073CE94B7BBEBDCB143EEAA0F6BC14
:1039B00003FD99BEBE60313EEA0EBF3D4A7BC53D68
:1039C000A85CA1BD0BB1A3BDAF730FBC0F390A3CFE
:1039D000F6F995BE1EC8CE3DAAA66E3D81FF943C69
:1039E0006B9A38BE2EB4E4BC3577E43CA55FB13D9C
:1039F0003FF740BC38FD1F3EBD37173EF842103E32
:103A000082D183BCE40D0ABE04C26F3D2E04883E01
:103A1000EA6D70BEDB6801BCC71B803D6BD9B43C4E
:103A2000A17E483DA4D34BBE72B0D73DF834663D6D
:103A3000AAE2F9BCC3323F3EB62FDE3D65CA1C3E4A
:103A4000443208BE2B9565BE8C1A353E4849153E5A
:103A50001B8091BDF45A753E1252443E1354633E8E
:103A60005094CEBD9D8F8BBE1340623E2B0D633EA6
:103A7000163AF4BD1474243EF5DA463EF1BA303EEF
:103A8000F5862FBEF5FF85BE4258AD3C6010873EDF
:103A900097E42BBE9958723E4740523E2B46BE3C9F
:103AA0002FE247BE8DF4A03C5A4CE0BC43E8823C78
:103AB000E64E4ABE388F783E01E2183CADC31F3E49
:103AC0004F6FE1BD94BDD83B432C793DB542663D77
:103AD000E87E89BEA7B3B63C7BAB513EC7358A3D75
:103AE000E803D43DCF6FF7BCFFB8F93C1074203D1C
:103AF000F247A0BC087B3A3E1FB92E3EE776A73DB1
:103B00000547353D278230BDE989233EA143D13D9C
:103B1000921814BE6AF18D3E1BA638BD9545563DE0
:103B2000AFCCBDBD670594BE5F419A3C3F984A3C0F
:103B3000C3BDCB3C5C8F7F3EFFAF7F3E52753B3EAB
:103B4000247656BD796C1EBEA277BF3D1CF5343D70
:103B50004179A7BD9F09AE3EF629B63DB2C4523E9B
:103B6000795B24BDFCA7C3BD86B4723EE3C50B3EA2
:103B70008A268CBE10F6F73D58265F3ED381913ED3
:103B800085631EBEF6AE94BD5FC2B73D97A07F3E73
:103B90002912AABDF12B723EDED3B43D2071DC3D6B
:103BA000235F5EBD369113BDECFEC53C44C2823E30
:103BB000D17918BDAA4ED03DC267BF3DA3EE2CBC43
:103BC000AB6540BEBA367BBCC3F2783EEEF22E3E09
:103BD0009DDC0DBE085FCB3CEB611D3E15226C3EAB
:103BE000D0B020BD24E984BEE6C78F3C6DFE5D3EAB
:103BF0009174ACBE6DAF183E376588BC78F3323C2B
:103C000094D5E43C75E4C6BDE647DF3D18C34E3E9F
:103C100041EE09BE8D9FA7BC9D6A173E8A6FA23BED
:103C2000E5FD383EE48F62BE2413AF3C87A1863E9B
:103C300064631EBEE81DA43E1057BBBAB4D09A3DC3
:103C4000F21E1BBE42C364BEE533823DE7B13B3E7C
:103C5000CA23BABE51F3C53DB0877D3E1B95963D44
:103C6000D0986CBEF5FE50BEAFDD783C11DC023D55
:103C700094E198BE3E5A113E154D593EA2F8293E98
:103C80000CB22CBED64582BEE21C2A3E68EE953BA5
:103C9000E246B2BD7B8AEB3D72E74E3ED288243DC0
:103CA000137F69BEADCA8ABE8357273EC208D8BB00
:103CB00004E85CBE590F2F3EFD9B9BBD32D90C3EE4
:103CC0003F0221BEC4735ABE19B2F53BB4972D3ED4
:103CD000D48591BD9B0E323EE90A513E0A69043EED
:103CE000DCA17D3DA4D6CFBD61E26238905C793D18
:103CF0007CFE04BEF18FB83C122E1A3E736FFC3D61
:103D0000E40A033EB38196BDAABBDB3D28ADEB3D83
:103D1000B8C443BEAE0F9C3DC972ED3D7595A43E3F
:103D2000810CD43BFBC18FBD78B32E3E8916513D2B
:103D3000A21889BD791E693EF2D6C9BC10C8343EAE
:103D4000E562CB3DBEA79BBEB5D167BC2C59403EBA
:103D50009EADC6BD631F8B3DD6B80C3E5242813D21
:103D60009D0BE4BD4E7EC0BD259B083E1066713E96
:103D7000DAA3CFBD759D503E75221B3EF687163ED9
:103D800033B83ABEED8285BD109C01BCB376F03CE1
:103D900093AF8BBED9086A3EB012BABC6B889D3D0A
:103DA000632454BD43891FBEA94156BAE29014BD95
:103DB000E7DC62BE17FEF93D5AA13D3D47F2423DA8
:103DC00014F8063D04B63EBD9C7FA83C3821FC3D5E
:103DD000EC6B13BE688A963EAA74B1BDBC7A113EE4
:103DE000A54320BE10FA11BE008AEDBC013FF93D8B
:103DF00003E051BEC9C1293EADD9353D8A94893E03
:103E00004866E83C11FC0EBE4F868B3CA708333E4B
:103E1000CA03A0BD8F5C333ED37EF33D914E6C3E12
:103E2000003FD7BCC956853DA1061FBF6D5147BF96
:103E30007309C9BD9754F1BE5F0846BE658580BE53
:103E4000F96E163D9C9201BDF8361DBFA97248BFA0
:103E500087071C3C840813BEF1C69EBD158097BE23
:103E6000BAD2E63CE3EE813D55D312BFF0732EBFCC
:103E7000B33CD03D2218ABBEBFE269BD73CA9EBE43
:103E8000933FB6BDC5B22B3E1D066BBE6259B7BE91
:103E9000922FD23D524739BE0CEC21BEF42707BF0A
:103EA0008945CCBCD5956C3D53B637BE8AE991BEE9
:103EB000488A1B3D17568CBE862439BD439FAABE37
:103EC0006CD6E4BB5EC2FABC1D97B6BECF17AFBEC0
:103ED000F7B7193EAC7D70BE2F12CCBCF7F79CBE75
:103EE0008F55113DF997D53D865E8BBE542FBCBED4
:103EF000B79A1DBD63AA7BBEBAC0B4BD3487C9BE24
:103F0000C2B0C93D9E484CBD1632EDBD85B3CCBE96
:103F1000DD6345BD1D9C3FBE8A1503BE118A05BFEA
:103F200038BEE83C72F21F3E4C7109BED2C20ABED6
:103F30008BA1023D312018BFAA8BDEBDD1A123BFCA
:103F4000F45CDD3CD994823B8DD8FFBE42A482BE96
:103F5000F175263EFC1D12BF051DC3BDBDB154BF8A
:103F600027D6A8BBAAFDEB3DEF0FCFBE1EC3CEBE2A
:103F7000A404463B7B8EAFBE084A32BEC956BABEC9
:103F80008854813DAE3823BD218ECEBE3C3D29BF35
:103F9000116D4C3DFB735ABE09D298BE979D0ABF66
:103FA0009CF4A6BDED11DC3D8866C6BE0D8B0EBF30
:103FB000F5D60F3EF9919EBEB5F951BEC138B9BED6
:103FC000774CAE3D4439163EB4B6F3BE5662D5BE0C
:103FD0004E18E93DBA45ADBE07A644BED1B12BBFD0
:103FE00036FD14BDDE768CBD4FCAA4BE9BD3DBBEAE
:103FF00076F89DBD4621D1BEA57B66BEE55CC6BEFA
:10400000C0DB7EBC62D8013E4183A5BE612340BFB8
:10401000778301BEEF18C2BE052C28BE25B214BF9F
:10402000C70D3C3EF2088FBD633931BE9465B6BE04
:104030004978E7BC6891AEBE37EB20BE3DDA11BFD0
:10404000E40DD83DB3E0EE3BB4E666BE972DC8BEA6
:10405000DC90E2BC57E5E4BE40628D3D143DEABE13
:104060008CA9863B3E27E73DD28C25BE7A3006BF21
:104070006923313E8B386FBE58103EBE61CF0EBFF4
:10408000BB3D963DE95CE0BDA0D915BE53733DBE76
:10409000DC0078BCF7F0FBBE4A9D3FBE2EF600BFA9
:1040A000D4342E3EAA7DFCBD175F7B3E7CB28EBE13
:1040B0004E6F1CBB0EEEEBBE8040603DE2BACFBE41
:1040C000823D4B3D334BA53D69B507BE835AB7BE14
:1040D0009A5F86BDD42642BF87C00FBE636E05BF00
:1040E000158B2C3E8ED5033EE09FBD3E4CD60D3F3A
:1040F0004DE9093EE980333E34EF483EEB9D663E94
:10410000EF866F3C2F2DA9BD20F4613E930DC13E7B
:104110001DFF8D3DBB9F9C3E7E63243E5800F23DBB
:10412000079E9D3C9BD9C83DFA907A3E274FDC3EC6
:10413000382D8F3D84A3623E1FDF273E259E4E3ED5
:10414000CA9F013E4E54963D2F9D333EF3750A3F64
:10415000CF95383EBF9B213ECF5D203EEA451C3EB9
:104160005072023DB2A515BD21C00E3D892FF63D0E
:104170001F25ED3C313A8F3E86AE953DF671403EAF
:1041800017CD513D4253D0BCEABF5D3D72A3CB3E3B
:10419000BE79253C3942653DD42BF0BD2728783EB9
:1041A000DC4C233E441EFC3D4EFE0B3E6010C63EE2
:1041B0003DEFBCBC5D59893DA7BA393D6D3BEA3E38
:1041C0005D82BD3D2617CA3C1C61343EE1FBFE3DCD
:1041D000C3F5FE3CBCE8963E630FB0BD3EAB6C3E03
:1041E0005D48C43DA095FE3D808B363EB0B1CF3ECC
:1041F0008B3564BD9D9CF73EF3F7673C961F173FD8
:10420000DBB9803EAE58FF3C6847D53E0EC9B43E90
:104210008604D5BDA068DF3E0828183E5D87DA3EDB
:10422000AE09D5BDF894BCBC46C5D23ED42FE33E02
:10423000730CD13D4167A53E51BFAB3ED0C5DF3EBB
:1042400042FF493E68E294BC94589B3EC902D53E69
:104250003A080C3E0BD9663EB44C033DC732A13E32
:10426000FC39D73CD10D5F3D4E57AC3E38F1D63EC0
:104270002584E63DBA488B3C054927BDF2A5D33ECF
:10428000281F07BBB8F3FF3CD059EA3EE9CAA33E5A
:10429000C4D1043E6864DA3DE9B92D3EC5CFC33EC2
:1042A000163F9D3BF3C687BDD3C94F3E2C8B1E3FA7
:1042B0005ED11A3E0A5FCB3E63D3103E13B2363E48
:1042C000E608253EAF49DEBCA709E13C76BE093FC2
:1042D000E027B73D249F873ED309BFBCDCAC813EBD
:1042E000C3E68EBC474B9B3D5944223E6603BC3E11
:1042F000AEA4413E77263B3E989903BE76AA873E00
:10430000946D4D3E77B8403B2A359D3D00321E3EB0
:1043100004D8933D00E36E3E008E69BDA10C353E8E
:10432000E231BABDEF95C83D5D4F7D3DC8A4C93EA1
:1043300036355DBC14006F3EC8F5B8BB050FB83EFE
:10434000FADCC5BD1921D13C19DA753EDEB7813ED4
:1043500089E0AE3DB41CB23EC5ACC5BC7124163F6D
:104360006BB23EBCA154F83DC141BC3D1F322D3E55
:10437000BB8544BB02C9E93E1445743E1CAF033FF4
:10438000D0227E3EAAA6BCBDCBEDAB3E665FEB3E27
:10439000597FC03D3DCA1E3F64C8B43E2011063F50
:1043A00098D5623EB7DA7CBD4694653DC831293E5A
:1043B0001F31033E03D0303CFB7BC33DE64C9DBD2B
:1043C000B4B2353E245E803DA6FD833EADBEC13D08
:1043D00075E85AB9AEA1093C14BBD03D731998BD1C
:1043E00091B5D73D2D3F4A3E379B2EBD1626783DD1
:1043F00013C3123D2858D6BC40395CBD8C9C18BCF8
:10440000A4084B3E8CCE94BC77C9893B2DB936BCF1
:104410001624073E3C57283E25C41D3D30FF603C16
:104420004CBD353E89799ABD07FF2B3BE93F90BCD7
:104430001F25DB3D306BE0BD3B52CB3D56C9CC3B2D
:10444000D4EDAD3DCAB8563E1A8CE43DA734323E99
:10445000EA86CD3DB152C03D3E7FC13D6E4900BDB3
:10446000217F9D3D09431D3E9CB6213D084AC3BDA9
:10447000EAAD4E3EB7CDFB3DF323C4BD381D28BD8C
:1044800035B90A3E93C3353ECA531D3E98C61D3DFD
:1044900065C9113E408B363EEEF21EBE3102A1BD13
:1044A000F0F4523E5654E5BC5E5110BEC7D523BD54
:1044B0003054D73D7AA6113E5E5C02BD3915EF3D02
:1044C00018EB8C3E8445063E8975DC3D2460A03D9A
:1044D00048D9313E6E827ABD191F4C3DB99C133EBE
:1044E000F33BAE3E5526963DCACB863DF81B0C3CB1
:1044F0000AE4CBBCE1E74B3E4F2BBC3DE2326F3DC3
:10450000FC393E3EFBBE963D295A253E63AD413EF9
:1045100068A5823E6E4E2C3E35AC81BDDE18B03DA6
:1045200076D0333EAE9D083E07EB6A3C8EB6573ED2
:104530009EB55A3E559CDD3DB4F046BDDFDF56BD0D
:10454000C7AA373DC132083DDEB6553EE5A5963DCA
:1045500012E7A7BC5389AC3D7A622A3D8A9FE93DA8
:1045600017DC893D9925ABBDF8C177BDA602DA3DC0
:104570006680843E1BC3813C39C0B8BD1229B23D60
:104580004B2E943EDE93303D59ADD83D7A9CEABD2A
:10459000EDA0333EB3251B3E8C0D7D3D938E22BD99
:1045A0003B80593ED5653F3E3ABF0B3EC00DA2BD94
:1045B0001C72893EFFD6C13CC5FCB9BDF11281BD5C
:1045C0009D2F983E9C3DFE3D7F8F173D6E468DBDD5
:1045D000E598893D374BB0BC502AF13D8340DABDA8
:1045E00002DC89BDE2B634BDB079003E9F8EAABD23
:1045F000C0643E3DEE81B03DE2EAB6BD0B1D343EE7
:104600004DE0853EFBEF1F3E0F48533DDDCE2A3E79
:104610006EE9EF3D911B243E0827053DFC01793DE5
:1046200021705A3EA4AA983DCDFE0FBE7D64C1BD47
:1046300047383ABC58E2883E8C0EBBBD974973BDE3
:10464000A28CA53D131E773EA95A0DBEB533A3BD5E
:1046500004655D3E8A0E9E3DDD2FFFBDD17AE03CB4
:10466000FD91BEBD9D1952BE6FE0563EB604053E9B
:104670002B08A9BE870A743E02928A3E9F51573E7C
:104680008B468CBEE74688BD05415DBD281B773E45
:104690007BB385BECC4FF23D4BB1E43B475C423D22
:1046A000F1177FBEECD139BE0342163E16EB223D18
:1046B0008285C2BD892A303E4DB6463EB272783EF2
:1046C000D06FAE3C3F678FBDB1D8393E5EC6933DDB
:1046D0008E39F0BC5C40433ECAE6FDBC9E2D683E70
:1046E0006A76E43CD146ECBDB1F8DC3D76C2B43B21
:1046F00075A0BFBDC44C8C3DE9D4493D7D8D683E5D
:104700003D40A03BAD1541BEA23E343E070B653E89
:10471000F9A691BEA60D3A3DD7E2003EA732C23DB2
:10472000913B9A3C0725D8BD0AC206BD8491CE3B79
:10473000D644A8BE0D9A813E35182E3EDE4C063D6D
:104740004C1B5A3D6C32BBBE7FC4BCBC124DD23D2B
:104750009D8713BEC017533E4A2F403E7BC7803E05
:10476000228753BEEBF5D9BD87F0893EAF462D3D7C
:10477000B9007BBEE9A34F3E1A18633E924D833EBB
:10478000FE4D30BEDF03ADBE02DDF73C98BF8F3E6D
:1047900007CE85BD24D8B53D8ACB673D52F9DC3DB7
:1047A0001F59AFBDBA964CBE398E5F3D5840E03DB3
:1047B000F1E231BD00D81E3CCCA8413EBA9C2C3C55
:1047C00097A84EBE7ECE9CBB7067993EDEEBD43D73
:1047D000DA79DBBD8A0A3B3E0DE2583E5351833DF8
:1047E0005C70BABDE673B8BDD679A63CE5D3A13AF4
:1047F0002A5A8ABE872C193E5EC4513D1F3B863E15
:1048000026C3E83A4BC49DBE21B7813E82B9C03D64
:10481000D6192EBE2C48983D585C753C1752873EE1
:10482000DB778B3D858941BE6B80413D67B0DF3DC5
:10483000849266BEAE6E853E56BF593E9E946C3ED7
:10484000E22D2EBE799384BE90B2113E7611A93C22
:104850008A6D9DBDD41D653DDC0CA0BD444FF73D68
:10486000DC6E2BBED5145DBD66EED73DC8300C3E68
:10487000F0514BBD961CCD3D9D2C3B3E07CF703E6D
:104880002C3982BED88857BEAB61FA3D31A0933E29
:10489000B0F5B7BEEDDF9D3BE9EA51BDCF170E3E47
:1048A000BBE0EF3D48054CBE0342CF3D1462543E91
:1048B0004C89F4BDFE7B943E0E4B23BD6909053E39
:1048C000B32231BDF97B7FBEB763203EE88A753ED7
:1048D000E1C74ABE4F24833DD57D94BD9627EA3D6E
:1048E000E269DCBDC64889BE57978F3DB975223E47
:1048F000F45D33BEC88B3D3EC6C5183E9E160D3DC9
:1049000086FA313D863BBCBE9FE9923D9F6AF3BD6E
:1049100061722BBECE2F993E9F05183EEBF5133EDC
:10492000F18F06BD825C933D19D512BDBDE3BFBEBC
:10493000AC3A7B3DF07C08BE3C2AB73CCAF132BEA3
:10494000300A28BDA05B783EA62E06BE309E55BE1E
:1049500076DFEDBC6EF2A4BD430507BE707A973DCD
:10496000939CA03DD10911BDEEB1783B03F5C0BDCC
:104970007D5EDB3D5061F4BD88A4043EDD5BE7BD98
:104980005B250CBE925448BBD7BB653D64B49ABE50
:104990002D5A6ABC6D110F3CD7EA463E483C3ABEE0
:1049A0000BD0FE3D50982B3E3320F63DA6E315BEBE
:1049B000050D4D3EEB2222BE20E4B9BCCBC953BE4F
:1049C0009D1A1E3DB9CA4E3E9249963D14A4B5BDEE
:1049D000EA7AEE3D2FE7963D15A3283E40F278BDDA
:1049E0008CF0583ED885673E7BE567BE22FC7EBED4
:1049F000B1F6D6BC58D642BE8437603DDF1E0BBD33
:104A00003CF5F23DFAA04F3E9458143EB7F2033DF8
:104A1000102E933DBC0340BD4E175A3CB732A8BD83
:104A2000052EAC3C22602E3D54A543BD61AB8BBE30
:104A3000355BC23D3A496EBE0F399ABD6CD3D9BEC3
:104A400048F4DCBD31EA863D21A269BC77306CBEFA
:104A5000411FC93D6738C1BE5274DABD13B1DDBE16
:104A600055E9CCBD5D2B013DCB772E3D6A8916BE45
:104A700007D61A3EE593D5BDCC6486BC52E3DABDB9
:104A8000A402343E7B17363E41D37ABC3111A8BE16
:104A90001567AA3AEA7F0BBE2F1BB2B917529ABD0F
:104AA000BBB51DBEF5C6243E63A8ABBD896D17BE60
:104AB0009C06F1BC7CC1BEBD4F56163E4FDF37BED3
:104AC0000064963D3767EE3CEC3E34BEFE4A8BBE3A
:104AD0002D52B03D394ADDBDC6CB81BD80ABD2BEC3
:104AE0006F4854BD0FA8833E4804843D00A1F1BD2A
:104AF0008B65DCBC541755BE4A63A2BD54BF77BE5C
:104B0000CCB1E93C3B63E23D62E934BD86BE68BEA0
:104B1000DA1D173E82E71FBEDEA334BD476211BD1A
:104B2000545D3B3E1B90943D3730FC3DA0448CBE11
:104B30003022233CA75585BEBC34193EC5D053BE98
:104B4000CAFB943D7E507EBCFF17AD3B3A6E4CBE17
:104B5000499550BDD32432BEF3738A3EAD1418BEBE
:104B60006AE7303E92D2413EDA7D56BDE112D8BDB1
:104B7000A1C0CD3D19F42DBE272DADBDCEB460BD75
:104B80001366E6BC7BDB6C3EB8D3E43D6282A8BD15
:104B90009BF8733E9A83A5BE467E0E3E839059BE17
:104BA0007D01B33D6D1162BD8956913C540CB6BE7A
:104BB0005CC46E3E724C0EBF764A83BDB8E74ABEF7
:104BC00016F305BE41FD1C3EBC2D8DBE48C68CBEF5
:104BD000C7B5823E17F2D8BEF5CE22BE69C504BF66
:104BE00001DDFC3CD68F8DBEE2F1343EC4060A3EA8
:104BF0008115CABDCFE3613E71801A3EDA8DF13D69
:104C000026101DBD88AB9EBE45F7273DAACC2C3E85
:104C1000489DD6BD60C59F3E9D7B973DE1BCBC3D98
:104C200066CDF8BD7D404CBE3E21623E66AB003D88
:104C3000C1CA0ABE364DEC3C90951A3D3BE0223E7F
:104C40001204A8BCA4B938BDCF0E3F3E2727533E5F
:104C50007A3647BE29F4A1BB4C24053EAF9498BCDC
:104C60009AF729BE2DB383BE6EBB333E9EB9ED3C91
:104C7000B7D9B4BD8D5C543C533E273EF013063E7D
:104C8000EA63D6BB592040BE1F12883CB29BB03DA0
:104C9000EF57B0BD0ED46C3C3704D83DDEFC833EEC
:104CA00045EE913D372581BE938F823E859ABE3D6C
:104CB000D40867BE22C48A3DF8ABAE3C609F743E08
:104CC000B853BC3D0416A0BE81504BBC2911AC3D6D
:104CD0006BDC8CBECD598E3EAC750A3B0CBF913D52
:104CE0007442BEBC19A07CBECFCE7A3D7FEFBC3DE6
:104CF00001A243BEDE7A773E2EF8753D2942913DF2
:104D00006F987ABB8DEF2ABD2C482F3D7E26CC3D77
:104D10007CE58CBD1459243ED4CD643EF1A2343DD3
:104D2000156F5BBEAEBE75BE77FC8D3D2AAFBC3B3A
:104D3000273244BE3A240E3C6CF6363E15483C3EC3
:104D4000825C39BCCE0943BD5140253D7D15FA3DFD
:104D50005A0F5BBE2AA6ED3C348F45BD9DF621BDA2
:104D6000CD4AE73D421809BE399F823E5B635E3EF5
:104D70005FB9D8BD83DE05BCB9D63ABD5865FA3DEA
:104D80004EE5103CD8C7F8BD3B2C4F3E55032D3E99
:104D9000667B8BBD8EBDB73D9308663E5FF8093ECE
:104DA0009ADEEBBD58DF91BE1FE7F73BCA1AE13D23
:104DB000219DACBDF3EC713E9E473C3E11CDB13E12
:104DC000849417BDD62C34BC14D1E13D9A78873E2B
:104DD000F01A6EBEDE8E4B3EEC514ABD648B13BDA5
:104DE000BB73CE3CD7E6173DAB0F63BD3635A93C50
:104DF00018B26DBDA9BA133EA477333E2BC2CB3D8A
:104E0000D59057BE05B2C83B58842D3C1514573D6C
:104E1000BF1F75BDFB61C63D8E00543E47DDC83DDA
:104E20005C4D133E275A91BE7BA1933CBA0A933D39
:104E30002CE381BECC837B3ED5E33D3EB288CA3DA8
:104E4000998ED43DB42F8ABE9C3D323E510004BDA4
:104E5000236E63BD8688773EF2CC133E4115273E14
:104E6000A97B3EBD406F83BEDACD473B9DDC673DED
:104E700059DC063D63EA163EF35714BD967F3E3E6D
:104E8000243C2C3B9BFE1CBE9C5B5C3D6DD31A3EC0
:104E9000EA6A7FBE8699193E6877823D1C014A3EC8
:104EA000D3B880BD69FA82BEC017623E57062D3E58
:104EB000379250BE2527AC3D2C71163EFFC89C3C56
:104EC0004E8C48BED6D618BE7D2189BD0E22F1BAC1
:104ED0006C033CBE6134A03EB403283E29583A3DE1
:104EE000E9FEC43BB4B71ABD150E4A3D234A9C3CAB
:104EF000200773BE5119CEBCBE338F3A1E69563D92
:104F0000A0600CBEDBA325BEE5054A3DCA0D603E90
:104F1000B243D1BD8D911A3E10934F3EEEF947BD7D
:104F20009A42BA3D9EFED5BD6414463D907C2FBD8D
:104F300085516DBDEC97023E2B330D3E93C6473D28
:104F40006BF4B03D8A872DBE99CD433EC3B8653E14
:104F5000A5697BBE54BF203E2873153E60CAAB3D99
:104F6000F556B0BD46083FBEACC3EB3DDC515F3EDD
:104F7000A3F70CBED737E83C5E1ACB3D9777BF3D11
:104F8000643623BEF0F798BDFFBB993DC3E6543E9F
:104F90003A7EACBDA501AF3ED887303E3C30A13D46
:104FA000C14B67BEE321A2BE397A8E3E87318C3C6D
:104FB000D2B89DBEFA796B3D1FDE053E6BF28B3E8B
:104FC000EFBE9BBD93FCBEBD1E69A73C5693F53D4D
:104FD000C70488BE89C9763E95515A3E9579393BBA
:104FE000904598BCDCEC78BC724D0D3E1B41AD3C4D
:104FF000C4B5DCBDBB2CA33DD3EDF33D2A90303BC3
:10500000ED17AEBD705B12BEC03704BB76B0343E48
:105010001997C1BD5937013E9317643ED25315BD50
:1050200091554FBDCF7946BEF414683E604E9BBC8F
:10503000457536BD6335113E32E7303E52493A3C44
:10504000002C643DBAE63ABED337F73DB34A473C3D
:105050002F773FBE6C05DD3C5F8F1F3E718F353D66
:105060006CFF853D1B8A8BBE2CE3E7BCA1A6803E6E
:1050700024960EBE1175093D779EF43D560F5C3E99
:105080001BCD803DFA778ABE457A2E3E92E37C3E68
:10509000F4B981BE081205BC5B51843D542152BC59
:1050A0008CB93FBE5CD7AFBDA038ED3DBF0D0C3E07
:1050B000588B74BD01EE703E495D77BC522D473E62
:1050C000EBA441BE6B2CF43AB9965A3E3FF4853EB0
:1050D000CD268EBE80A9C13C2BBCC63B406D883A14
:1050E0007684803D36B359BE7D4A623E1F2ACB3D51
:1050F000EE4E89BDCFDC7C3E691B8A3D87B9E93D18
:10510000FB1F89BCFFDF4DBE3113523E19F1663ED5
:105110000DB78ABD94F1E03C496496BD387B4E3EA4
:1051200029C6B83D5A1843BE3229373DAE624D3EBE
:10513000139CA6BD1594423E5EB1C33DD9206F3E7F
:10514000F22E08BEED0D1FBEBDB0913DBD78143EE0
:10515000FA5AB3BDB01E9D3E790DAD3CE4EA1A3E4D
:10516000AFB518BD72D2E1BB5566933E34B3673E0E
:10517000FC48A2BCAE37C93CA123813E08EDF83AF9
:10518000034ECBBD260CB7BD57797DBC1CDE053E5A
:10519000894916BE7F88923DF8C7653E3D52F3BBF4
:1051A0000A64D43D37795CBE98A022BDCA8640BD52
:1051B000D93C83BD4056EC398E34043E0DEA5A3E4C
:1051C00074CE88BD7F6DBB3DDC5EB33DB00EEE3B63
:1051D000993BA6BDA2CEE73C3790DF3DAD800D3EAA
:1051E0009E3FC53DCD4830BE29411BBC71AE90BD30
:1051F00007426CBE46442C3D8C66FBBBF888933D51
:1052000076740B3E90C0D3B976FC0EBBF8EB04BEAF
:105210003BBB793D8112ADBDBC73203DC8A0973D1D
:105220009B87AFBD127B453D904D493E3D9F6B3EF8
:10523000791519BE5B94703E9C10BEBCC5A6803E1D
:1052400000ED72BAFA5C0FBE4670A5BCE9563E3E50
:1052500038571EBE86F66B3EC0AE87BBD69F83BC5A
:1052600040AAA3BCB6F75EBDCE60293D0E18553DE1
:10527000523036BE94F2873EAC3A883D02C474BDCB
:1052800074E039BE615746BE32EB923C79450D3D24
:105290009CE2843CFEDD273E5E2A163EE5CC86BCC1
:1052A000540B5DBE40AEA0394EA2563D48E4513D80
:1052B000040D14BD9237E7BDE79C5CBDF39D1D3E18
:1052C0003AEA11BEBB4F58BE8D3B3C3E1E915FBBC0
:1052D000181A56BE337E173D2ADF63BDD7BDBE3DCB
:1052E0006C26183D87D12BBEA2AA1F3E64E5F33D74
:1052F00056E38D3DD7F3FE3CF707E53C3ACA363D11
:10530000C830ECBDD177153DE4F0CE3C89AA983C7D
:10531000122760BED2C2CA3C108C263EB134003C7B
:105320008057C13D822FA2BD2ABA04BDB4A5303E2C
:1053300000A39BBC39B1963D3804133E6DC3943E27
:10534000FD3E16BE9E4BA53C636F5C3EED055FBD0A
:105350005D4319BDE566933D55B22E3E41B2A03D79
:10536000D86023BE511A6DBEAB37453E4544BC3DA7
:10537000B11A9F3B6304BD3DEA2C9EBDBC9DC03D60
:105380000AF1A1BD9B3A873D315650BD07B403BD1C
:10539000D4140CBD69AF503E22510F3E7B6871BCE6
:1053A000EB4F3F3E8901F5BD79650B3E6A812E3E8C
:1053B000845A0EBED8FA1C3E4FC9EEBD36C4D43C4A
:1053C0009F04763DA0B15EBEECA2493EDADAEA3D2A
:1053D0003FA822BE6248813DDCDB8DBD07039E3CB9
:1053E00016E8DE3D12375B3CBEFB083E90FD4B3EAF
:1053F0000F2FCCBDC588FC3DBE2F3FBD0FD3EF3C6A
:10540000997DA4BD66DD80BE640471BD883F1F3DEB
:105410002C9071BE171C773D8EE8883CB70E8C3EF1
:1054200006484FBA1CB38BBDB98E20BF8BE34BBF70
:105430004EEA1B3E8209DFBE9C8D42BE45EFC3BED5
:105440004AD51BBE2BDBE1BC9D5A9EBEA75236BF80
:1054500012289A3C3C6EE3BEE52D81BEA66E39BE95
:10546000B351333EE2CC143C417ED9BED653BBBED1
:10547000E040E33D6E7C40BE93A92DBDC3C0A4BEF9
:1054800060673E3DC88213BE827958BE56D6CABEFA
:105490003CAA323D052201BE990138BD78DFE3BE4A
:1054A000F746A3BDAA408A3CCFB053BEE40B02BF6F
:1054B00034FF0A3D4AFA80BE85DA57BE784AB7BE45
:1054C0009F558FBD33237D3D13EA58BE04E601BFCF
:1054D000C4D8CF3D798420BE5FC6523CADB1F5BE85
:1054E0005B3F1ABC7286AB3C2610B4BE2F47D5BDBD
:1054F00034100B3E7ED930BED88B82BD6722F3BEFE
:10550000EB1290BC9094EEBD08AB21BE751F93BE0C
:10551000E3665BBC9ECBDDBEC11CEABD7E47B0BE70
:10552000A3D0D93D4916AFBD54B49FBEF280B9BED9
:10553000FF063C3CFEDCFBBE6DB306BE86A1E2BEB0
:105540005D31093DBCAB3D3DE749C3BEE87EC7BE0A
:10555000C9EF1FBDB2DA22BF351CB7BDF81C39BF79
:105560006048893D0A46EFBD34DC05BFE5C724BF6E
:10557000CA41C43D627287BE09C511BE8C1FC5BE3B
:10558000AC9652BDAAC51ABA6E4E82BE5F0338BF32
:1055900069E192BCCF06D1BEA4B6E7BDE4E42EBF5C
:1055A000AC520D3E3FE0D1BD153805BFA9B01FBFBD
:1055B000B74DC2BC18C296BE826218BED658E2BEB3
:1055C000190A8FBC286196BDD47E1CBF9A8A1FBF62
:1055D0006350793D7352F6BE7B86BABC858414BF96
:1055E00008640C3E52529EBDBA70BDBE26ED16BF79
:1055F000D47E923D6ABABFBE8A4A95BE8BC8B2BEFF
:10560000D1F7853CED04913D83E168BE8808F9BE81
:10561000AC56513CA184FABEC7183CBED36EACBE9A
:105620006E03B03DE6D5803DF140EABD2FBDD6BE4C
:105630002D1757BDAF7898BE8712893DA71AFBBEBC
:10564000BC2335BD73C3483D091381BE2AF639BE5C
:10565000F40A0D3DF2E149BE88E707BED5BCE0BEC5
:105660002CAB883EDE88A53C73F0D6BEFC99FCBE10
:10567000ACB817BDD06D3CBE53D785BD885DC0BEEC
:10568000900DEF39A0CFB5BD883C34BE951CDABE75
:10569000A874203EA43C05BFA3DB85BED17D2EBFF0
:1056A0003548543D1622273D6B2E1B3EA4D7DBBE4A
:1056B000B44DCF3CF6670EBF19E1F1BD1DA2C4BECB
:1056C000ADB46BBC394A83BD34C416BD952877BED2
:1056D000E61CFA3D4F7B2CBF5DB296BE29F7FBBEA0
:1056E0004031773EFB43AEBDE3A9B63E5F23DC3ECF
:1056F0006A17B63BBD100C3EFF0F843D95692D3EE9
:105700007E4A983D4C3CF83DAF48CB3E9585FB3EEC
:10571000DEC1013D3AF3FA3BAE814B3E1CDA673DF8
:10572000BD5B233E56CC58BDAB527A3DA7EAEE3E58
:105730000A06F5BC2A0E84BBA671123E18E23C3B59
:10574000D95A8F3E74C4A93D67906E3EEB51DF3E3F
:10575000DD18CFBCD9270F3D2B79063D4A36573E81
:105760004639203E2F1626BA71D5163E6A3EA43E13
:10577000918C173ECB3B8E3EEDD70E3D0FCE723E49
:1057800070D2BA378DAD023E95776F3C370C803EB4
:10579000E85C2FBD5EF750BC70C8BCBC7F34843E53
:1057A00068F1AC3DDF0A85BDCEE6813E5C043A3E41
:1057B000079BBFBCE021BE3DC616CB3C31208E3ED0
:1057C000FDA6163EECE1D93C441C593BACB7F83D74
:1057D0001F19673DC0BDA43EA8C4C63D1D671F3E3E
:1057E0008016423DC65285BA6E58093D9215DA3D83
:1057F00055A68E3D83DF943E05EF95BD33E4763E9E
:1058000089EC1D3DA61D48BD2979453EBE418D3E12
:105810005726E0BCE969BE3E95F70D3C0C97F23E79
:10582000767F263C937B14BD58BE543D0B8CCE3EF8
:105830000F603E3ECC398A3D10918E3D69C9A03E35
:10584000AA809F3DB1F7203E77A0AE3CD450823E67
:10585000C01BC83DF0337B3ED67F7E3EFB39983E71
:1058600027F10A3D170DF53D591C7B3EB6DDB23ED2
:10587000F7F4F23BDDDD903DBB66843D789EA63EAD
:1058800037B2FD3C22C404BD513CA23E4332EC3E43
:105890007714363E7DCE013E4DEF2BBD7D9AD03E36
:1058A000EDDE083EA663D03C9D2D9D3D0A47FB3EA4
:1058B000380F253E06FD3C3E075C8FBC5C94A83E3D
:1058C000162C013EB21B793DE17557BC07738A3E29
:1058D00037CE01BD6B63833E37F1CB3BB0DD8B3EF2
:1058E000EE82313E54594CBD0F11063E8BC2A7BB10
:1058F0001A9A453EB425363E94BFEDBC285583BB6D
:1059000078BF213EF92D2F3B79688B3EF144763EDE
:10591000D7519D3CEE464E3D83C3E7BD07FF283E71
:10592000B2C93A3E2D2307BE4CE48F3ED9C4823E15
:10593000D9B04CBCCED2ED3DE38FFD3D340BDF3E04
:1059400045B1083E0F09B83DB4406F3ED71DA93E92
:10595000968CEC3D0F4A9F3ED2F33B3D196E023FC1
:105960008CF9353E998E3DBDE437813D7656AE3E8D
:1059700059E762BD7AB3123F6850C9BD8474C83E0E
:10598000B7FE6E3E15B333BD074ADCBDFD90073E42
:105990007067EB3D66961A3F727DB63D2846103F14
:1059A00098FA68BEB952F1BDD97F09BF935C29BF8F
:1059B0008DB5BCBC281DC9BE53A18BBE22D187BEEC
:1059C0008D8409BE29315BBD157600BF8EBC30BF0A
:1059D00039A05A3DEEA6BBBE222D4FBEF160D1BE0E
:1059E00076B089BDC4C5CF3DB56159BE061B0EBF9B
:1059F0007199D13DFAEAA3BE0940D5BDBF3CBBBEFB
:105A000063F9823DC39F1B3DD54D99BE8B8614BF64
:105A10000EE8B33DFAB6B9BEC3FC1FBE3BD112BF00
:105A200050ECFABBFE695CBC247429BE26F8CDBEDE
:105A30002BE7993B8BAB98BE577217BDC7A34DBEE2
:105A40004BB2FCBDDB79B53DACF991BEFDBFB8BE34
:105A5000CD2400BE9C7B9BBE5AB5653D0171F4BE52
:105A6000F663D5BDDB7980BC95E578BED7E433BE5F
:105A7000F7561B3ED90F5ABE42D002BEEC4394BE2D
:105A800035B1363EFC590A3E5CB29FBEB2DD5EBE09
:105A9000F2F0003EFB4FE5BEA542453D501A88BEE0
:105AA000C3B1373CFC7F943D33E2A6BE3F07D5BE71
:105AB0006F669C3D4569ECBEF7FDCCBC66F81BBF2C
:105AC000A32B0DBD5F908DBDF799BFBEB57EECBE1B
:105AD000B8F10EBD452903BFDCCA66BE26E011BF82
